{
  "_format": "hh-sol-artifact-1",
  "contractName": "TokenMaster",
  "sourceName": "contracts/TokenMaster.sol",
  "abi": [
    {
      "inputs": [
        {
          "internalType": "string",
          "name": "_name",
          "type": "string"
        },
        {
          "internalType": "string",
          "name": "_symbol",
          "type": "string"
        }
      ],
      "stateMutability": "nonpayable",
      "type": "constructor"
    },
    {
      "anonymous": false,
      "inputs": [
        {
          "indexed": true,
          "internalType": "address",
          "name": "owner",
          "type": "address"
        },
        {
          "indexed": true,
          "internalType": "address",
          "name": "approved",
          "type": "address"
        },
        {
          "indexed": true,
          "internalType": "uint256",
          "name": "tokenId",
          "type": "uint256"
        }
      ],
      "name": "Approval",
      "type": "event"
    },
    {
      "anonymous": false,
      "inputs": [
        {
          "indexed": true,
          "internalType": "address",
          "name": "owner",
          "type": "address"
        },
        {
          "indexed": true,
          "internalType": "address",
          "name": "operator",
          "type": "address"
        },
        {
          "indexed": false,
          "internalType": "bool",
          "name": "approved",
          "type": "bool"
        }
      ],
      "name": "ApprovalForAll",
      "type": "event"
    },
    {
      "anonymous": false,
      "inputs": [
        {
          "indexed": true,
          "internalType": "address",
          "name": "from",
          "type": "address"
        },
        {
          "indexed": true,
          "internalType": "address",
          "name": "to",
          "type": "address"
        },
        {
          "indexed": true,
          "internalType": "uint256",
          "name": "tokenId",
          "type": "uint256"
        }
      ],
      "name": "Transfer",
      "type": "event"
    },
    {
      "inputs": [
        {
          "internalType": "address",
          "name": "to",
          "type": "address"
        },
        {
          "internalType": "uint256",
          "name": "tokenId",
          "type": "uint256"
        }
      ],
      "name": "approve",
      "outputs": [],
      "stateMutability": "nonpayable",
      "type": "function"
    },
    {
      "inputs": [
        {
          "internalType": "address",
          "name": "owner",
          "type": "address"
        }
      ],
      "name": "balanceOf",
      "outputs": [
        {
          "internalType": "uint256",
          "name": "",
          "type": "uint256"
        }
      ],
      "stateMutability": "view",
      "type": "function"
    },
    {
      "inputs": [
        {
          "internalType": "uint256",
          "name": "tokenId",
          "type": "uint256"
        }
      ],
      "name": "getApproved",
      "outputs": [
        {
          "internalType": "address",
          "name": "",
          "type": "address"
        }
      ],
      "stateMutability": "view",
      "type": "function"
    },
    {
      "inputs": [
        {
          "internalType": "uint256",
          "name": "_id",
          "type": "uint256"
        }
      ],
      "name": "getOccasion",
      "outputs": [
        {
          "components": [
            {
              "internalType": "uint256",
              "name": "id",
              "type": "uint256"
            },
            {
              "internalType": "string",
              "name": "name",
              "type": "string"
            },
            {
              "internalType": "uint256",
              "name": "cost",
              "type": "uint256"
            },
            {
              "internalType": "uint256",
              "name": "tickets",
              "type": "uint256"
            },
            {
              "internalType": "uint256",
              "name": "maxTickets",
              "type": "uint256"
            },
            {
              "internalType": "string",
              "name": "date",
              "type": "string"
            },
            {
              "internalType": "string",
              "name": "time",
              "type": "string"
            },
            {
              "internalType": "string",
              "name": "location",
              "type": "string"
            }
          ],
          "internalType": "struct TokenMaster.Occasion",
          "name": "",
          "type": "tuple"
        }
      ],
      "stateMutability": "view",
      "type": "function"
    },
    {
      "inputs": [
        {
          "internalType": "uint256",
          "name": "_id",
          "type": "uint256"
        }
      ],
      "name": "getSeatsTaken",
      "outputs": [
        {
          "internalType": "uint256[]",
          "name": "",
          "type": "uint256[]"
        }
      ],
      "stateMutability": "view",
      "type": "function"
    },
    {
      "inputs": [
        {
          "internalType": "uint256",
          "name": "",
          "type": "uint256"
        },
        {
          "internalType": "address",
          "name": "",
          "type": "address"
        }
      ],
      "name": "hasBought",
      "outputs": [
        {
          "internalType": "bool",
          "name": "",
          "type": "bool"
        }
      ],
      "stateMutability": "view",
      "type": "function"
    },
    {
      "inputs": [
        {
          "internalType": "address",
          "name": "owner",
          "type": "address"
        },
        {
          "internalType": "address",
          "name": "operator",
          "type": "address"
        }
      ],
      "name": "isApprovedForAll",
      "outputs": [
        {
          "internalType": "bool",
          "name": "",
          "type": "bool"
        }
      ],
      "stateMutability": "view",
      "type": "function"
    },
    {
      "inputs": [],
      "name": "lastPurchase",
      "outputs": [
        {
          "internalType": "address",
          "name": "buyer",
          "type": "address"
        },
        {
          "internalType": "uint256",
          "name": "occasionId",
          "type": "uint256"
        },
        {
          "internalType": "uint256",
          "name": "seat",
          "type": "uint256"
        },
        {
          "internalType": "uint256",
          "name": "amount",
          "type": "uint256"
        }
      ],
      "stateMutability": "view",
      "type": "function"
    },
    {
      "inputs": [
        {
          "internalType": "string",
          "name": "_name",
          "type": "string"
        },
        {
          "internalType": "uint256",
          "name": "_cost",
          "type": "uint256"
        },
        {
          "internalType": "uint256",
          "name": "_maxTickets",
          "type": "uint256"
        },
        {
          "internalType": "string",
          "name": "_date",
          "type": "string"
        },
        {
          "internalType": "string",
          "name": "_time",
          "type": "string"
        },
        {
          "internalType": "string",
          "name": "_location",
          "type": "string"
        }
      ],
      "name": "list",
      "outputs": [],
      "stateMutability": "nonpayable",
      "type": "function"
    },
    {
      "inputs": [
        {
          "internalType": "uint256",
          "name": "_id",
          "type": "uint256"
        },
        {
          "internalType": "uint256",
          "name": "_seat",
          "type": "uint256"
        }
      ],
      "name": "mint",
      "outputs": [],
      "stateMutability": "payable",
      "type": "function"
    },
    {
      "inputs": [],
      "name": "name",
      "outputs": [
        {
          "internalType": "string",
          "name": "",
          "type": "string"
        }
      ],
      "stateMutability": "view",
      "type": "function"
    },
    {
      "inputs": [],
      "name": "owner",
      "outputs": [
        {
          "internalType": "address",
          "name": "",
          "type": "address"
        }
      ],
      "stateMutability": "view",
      "type": "function"
    },
    {
      "inputs": [
        {
          "internalType": "uint256",
          "name": "tokenId",
          "type": "uint256"
        }
      ],
      "name": "ownerOf",
      "outputs": [
        {
          "internalType": "address",
          "name": "",
          "type": "address"
        }
      ],
      "stateMutability": "view",
      "type": "function"
    },
    {
      "inputs": [],
      "name": "refund",
      "outputs": [],
      "stateMutability": "nonpayable",
      "type": "function"
    },
    {
      "inputs": [
        {
          "internalType": "address",
          "name": "from",
          "type": "address"
        },
        {
          "internalType": "address",
          "name": "to",
          "type": "address"
        },
        {
          "internalType": "uint256",
          "name": "tokenId",
          "type": "uint256"
        }
      ],
      "name": "safeTransferFrom",
      "outputs": [],
      "stateMutability": "nonpayable",
      "type": "function"
    },
    {
      "inputs": [
        {
          "internalType": "address",
          "name": "from",
          "type": "address"
        },
        {
          "internalType": "address",
          "name": "to",
          "type": "address"
        },
        {
          "internalType": "uint256",
          "name": "tokenId",
          "type": "uint256"
        },
        {
          "internalType": "bytes",
          "name": "data",
          "type": "bytes"
        }
      ],
      "name": "safeTransferFrom",
      "outputs": [],
      "stateMutability": "nonpayable",
      "type": "function"
    },
    {
      "inputs": [
        {
          "internalType": "uint256",
          "name": "",
          "type": "uint256"
        },
        {
          "internalType": "uint256",
          "name": "",
          "type": "uint256"
        }
      ],
      "name": "seatTaken",
      "outputs": [
        {
          "internalType": "address",
          "name": "",
          "type": "address"
        }
      ],
      "stateMutability": "view",
      "type": "function"
    },
    {
      "inputs": [
        {
          "internalType": "address",
          "name": "operator",
          "type": "address"
        },
        {
          "internalType": "bool",
          "name": "approved",
          "type": "bool"
        }
      ],
      "name": "setApprovalForAll",
      "outputs": [],
      "stateMutability": "nonpayable",
      "type": "function"
    },
    {
      "inputs": [
        {
          "internalType": "bytes4",
          "name": "interfaceId",
          "type": "bytes4"
        }
      ],
      "name": "supportsInterface",
      "outputs": [
        {
          "internalType": "bool",
          "name": "",
          "type": "bool"
        }
      ],
      "stateMutability": "view",
      "type": "function"
    },
    {
      "inputs": [],
      "name": "symbol",
      "outputs": [
        {
          "internalType": "string",
          "name": "",
          "type": "string"
        }
      ],
      "stateMutability": "view",
      "type": "function"
    },
    {
      "inputs": [
        {
          "internalType": "uint256",
          "name": "tokenId",
          "type": "uint256"
        }
      ],
      "name": "tokenURI",
      "outputs": [
        {
          "internalType": "string",
          "name": "",
          "type": "string"
        }
      ],
      "stateMutability": "view",
      "type": "function"
    },
    {
      "inputs": [],
      "name": "totalOccasions",
      "outputs": [
        {
          "internalType": "uint256",
          "name": "",
          "type": "uint256"
        }
      ],
      "stateMutability": "view",
      "type": "function"
    },
    {
      "inputs": [],
      "name": "totalSupply",
      "outputs": [
        {
          "internalType": "uint256",
          "name": "",
          "type": "uint256"
        }
      ],
      "stateMutability": "view",
      "type": "function"
    },
    {
      "inputs": [
        {
          "internalType": "address",
          "name": "from",
          "type": "address"
        },
        {
          "internalType": "address",
          "name": "to",
          "type": "address"
        },
        {
          "internalType": "uint256",
          "name": "tokenId",
          "type": "uint256"
        }
      ],
      "name": "transferFrom",
      "outputs": [],
      "stateMutability": "nonpayable",
      "type": "function"
    },
    {
      "inputs": [],
      "name": "withdraw",
      "outputs": [],
      "stateMutability": "nonpayable",
      "type": "function"
    }
  ],
  "bytecode": "0x60806040523480156200001157600080fd5b5060405162004ba538038062004ba583398181016040528101906200003791906200023b565b818181600090816200004a91906200050b565b5080600190816200005c91906200050b565b50505033600660006101000a81548173ffffffffffffffffffffffffffffffffffffffff021916908373ffffffffffffffffffffffffffffffffffffffff1602179055505050620005f2565b6000604051905090565b600080fd5b600080fd5b600080fd5b600080fd5b6000601f19601f8301169050919050565b7f4e487b7100000000000000000000000000000000000000000000000000000000600052604160045260246000fd5b6200011182620000c6565b810181811067ffffffffffffffff82111715620001335762000132620000d7565b5b80604052505050565b600062000148620000a8565b905062000156828262000106565b919050565b600067ffffffffffffffff821115620001795762000178620000d7565b5b6200018482620000c6565b9050602081019050919050565b60005b83811015620001b157808201518184015260208101905062000194565b60008484015250505050565b6000620001d4620001ce846200015b565b6200013c565b905082815260208101848484011115620001f357620001f2620000c1565b5b6200020084828562000191565b509392505050565b600082601f83011262000220576200021f620000bc565b5b815162000232848260208601620001bd565b91505092915050565b60008060408385031215620002555762000254620000b2565b5b600083015167ffffffffffffffff811115620002765762000275620000b7565b5b620002848582860162000208565b925050602083015167ffffffffffffffff811115620002a857620002a7620000b7565b5b620002b68582860162000208565b9150509250929050565b600081519050919050565b7f4e487b7100000000000000000000000000000000000000000000000000000000600052602260045260246000fd5b600060028204905060018216806200031357607f821691505b602082108103620003295762000328620002cb565b5b50919050565b60008190508160005260206000209050919050565b60006020601f8301049050919050565b600082821b905092915050565b600060088302620003937fffffffffffffffffffffffffffffffffffffffffffffffffffffffffffffffff8262000354565b6200039f868362000354565b95508019841693508086168417925050509392505050565b6000819050919050565b6000819050919050565b6000620003ec620003e6620003e084620003b7565b620003c1565b620003b7565b9050919050565b6000819050919050565b6200040883620003cb565b620004206200041782620003f3565b84845462000361565b825550505050565b600090565b6200043762000428565b62000444818484620003fd565b505050565b5b818110156200046c57620004606000826200042d565b6001810190506200044a565b5050565b601f821115620004bb5762000485816200032f565b620004908462000344565b81016020851015620004a0578190505b620004b8620004af8562000344565b83018262000449565b50505b505050565b600082821c905092915050565b6000620004e060001984600802620004c0565b1980831691505092915050565b6000620004fb8383620004cd565b9150826002028217905092915050565b6200051682620002c0565b67ffffffffffffffff811115620005325762000531620000d7565b5b6200053e8254620002fa565b6200054b82828562000470565b600060209050601f8311600181146200058357600084156200056e578287015190505b6200057a8582620004ed565b865550620005ea565b601f19841662000593866200032f565b60005b82811015620005bd5784890151825560018201915060208501945060208101905062000596565b86831015620005dd5784890151620005d9601f891682620004cd565b8355505b6001600288020188555050505b505050505050565b6145a380620006026000396000f3fe6080604052600436106101665760003560e01c80636352211e116100d15780639a382f0f1161008a578063af296da111610064578063af296da114610532578063b88d4fde1461056f578063c87b56dd14610598578063e985e9c5146105d557610166565b80639a382f0f146104a35780639cb04aef146104cc578063a22cb4651461050957610166565b80636352211e1461036b57806370a08231146103a857806374bc8656146103e55780638da5cb5b14610422578063953865c11461044d57806395d89b411461047857610166565b80631b2ef1ca116101235780631b2ef1ca146102a157806323b872dd146102bd5780633ccfd60b146102e657806342842e0e146102fd5780634528f3ec14610326578063590e1ae31461035457610166565b806301ffc9a71461016b57806306fdde03146101a8578063081812fc146101d3578063095ea7b3146102105780630ef7ec741461023957806318160ddd14610276575b600080fd5b34801561017757600080fd5b50610192600480360381019061018d9190612b7d565b610612565b60405161019f9190612bc5565b60405180910390f35b3480156101b457600080fd5b506101bd6106f4565b6040516101ca9190612c70565b60405180910390f35b3480156101df57600080fd5b506101fa60048036038101906101f59190612cc8565b610786565b6040516102079190612d36565b60405180910390f35b34801561021c57600080fd5b5061023760048036038101906102329190612d7d565b6107cc565b005b34801561024557600080fd5b50610260600480360381019061025b9190612cc8565b6108e3565b60405161026d9190612e7b565b60405180910390f35b34801561028257600080fd5b5061028b61094e565b6040516102989190612eac565b60405180910390f35b6102bb60048036038101906102b69190612ec7565b610954565b005b3480156102c957600080fd5b506102e460048036038101906102df9190612f07565b610d3e565b005b3480156102f257600080fd5b506102fb610d9e565b005b34801561030957600080fd5b50610324600480360381019061031f9190612f07565b610eff565b005b34801561033257600080fd5b5061033b610f1f565b60405161034b9493929190612f5a565b60405180910390f35b34801561036057600080fd5b50610369610f5d565b005b34801561037757600080fd5b50610392600480360381019061038d9190612cc8565b6113ae565b60405161039f9190612d36565b60405180910390f35b3480156103b457600080fd5b506103cf60048036038101906103ca9190612f9f565b611434565b6040516103dc9190612eac565b60405180910390f35b3480156103f157600080fd5b5061040c60048036038101906104079190612cc8565b6114eb565b60405161041991906130db565b60405180910390f35b34801561042e57600080fd5b50610437611789565b6040516104449190612d36565b60405180910390f35b34801561045957600080fd5b506104626117af565b60405161046f9190612eac565b60405180910390f35b34801561048457600080fd5b5061048d6117b5565b60405161049a9190612c70565b60405180910390f35b3480156104af57600080fd5b506104ca60048036038101906104c59190613232565b611847565b005b3480156104d857600080fd5b506104f360048036038101906104ee919061332f565b6119cb565b6040516105009190612bc5565b60405180910390f35b34801561051557600080fd5b50610530600480360381019061052b919061339b565b6119fa565b005b34801561053e57600080fd5b5061055960048036038101906105549190612ec7565b611a10565b6040516105669190612d36565b60405180910390f35b34801561057b57600080fd5b506105966004803603810190610591919061347c565b611a52565b005b3480156105a457600080fd5b506105bf60048036038101906105ba9190612cc8565b611ab4565b6040516105cc9190612c70565b60405180910390f35b3480156105e157600080fd5b506105fc60048036038101906105f791906134ff565b611b1c565b6040516106099190612bc5565b60405180910390f35b60007f80ac58cd000000000000000000000000000000000000000000000000000000007bffffffffffffffffffffffffffffffffffffffffffffffffffffffff1916827bffffffffffffffffffffffffffffffffffffffffffffffffffffffff191614806106dd57507f5b5e139f000000000000000000000000000000000000000000000000000000007bffffffffffffffffffffffffffffffffffffffffffffffffffffffff1916827bffffffffffffffffffffffffffffffffffffffffffffffffffffffff1916145b806106ed57506106ec82611bb0565b5b9050919050565b6060600080546107039061356e565b80601f016020809104026020016040519081016040528092919081815260200182805461072f9061356e565b801561077c5780601f106107515761010080835404028352916020019161077c565b820191906000526020600020905b81548152906001019060200180831161075f57829003601f168201915b5050505050905090565b600061079182611c1a565b6004600083815260200190815260200160002060009054906101000a900473ffffffffffffffffffffffffffffffffffffffff169050919050565b60006107d7826113ae565b90508073ffffffffffffffffffffffffffffffffffffffff168373ffffffffffffffffffffffffffffffffffffffff1603610847576040517f08c379a000000000000000000000000000000000000000000000000000000000815260040161083e90613611565b60405180910390fd5b8073ffffffffffffffffffffffffffffffffffffffff16610866611c65565b73ffffffffffffffffffffffffffffffffffffffff16148061089557506108948161088f611c65565b611b1c565b5b6108d4576040517f08c379a00000000000000000000000000000000000000000000000000000000081526004016108cb906136a3565b60405180910390fd5b6108de8383611c6d565b505050565b60606010600083815260200190815260200160002080548060200260200160405190810160405280929190818152602001828054801561094257602002820191906000526020600020905b81548152602001906001019080831161092e575b50505050509050919050565b60085481565b60008203610997576040517f08c379a000000000000000000000000000000000000000000000000000000000815260040161098e9061370f565b60405180910390fd5b6007548211156109dc576040517f08c379a00000000000000000000000000000000000000000000000000000000081526004016109d39061377b565b60405180910390fd5b600d600083815260200190815260200160002060020154341015610a35576040517f08c379a0000000000000000000000000000000000000000000000000000000008152600401610a2c906137e7565b60405180910390fd5b600073ffffffffffffffffffffffffffffffffffffffff16600f6000848152602001908152602001600020600083815260200190815260200160002060009054906101000a900473ffffffffffffffffffffffffffffffffffffffff1673ffffffffffffffffffffffffffffffffffffffff1614610ae8576040517f08c379a0000000000000000000000000000000000000000000000000000000008152600401610adf90613853565b60405180910390fd5b600d600083815260200190815260200160002060040154811115610b41576040517f08c379a0000000000000000000000000000000000000000000000000000000008152600401610b38906138bf565b60405180910390fd5b6001600d60008481526020019081526020016000206003016000828254610b68919061390e565b925050819055506001600e600084815260200190815260200160002060003373ffffffffffffffffffffffffffffffffffffffff1673ffffffffffffffffffffffffffffffffffffffff16815260200190815260200160002060006101000a81548160ff02191690831515021790555033600f6000848152602001908152602001600020600083815260200190815260200160002060006101000a81548173ffffffffffffffffffffffffffffffffffffffff021916908373ffffffffffffffffffffffffffffffffffffffff1602179055506010600083815260200190815260200160002081908060018154018082558091505060019003906000526020600020016000909190919091505560405180608001604052803373ffffffffffffffffffffffffffffffffffffffff16815260200183815260200182815260200134815250600960008201518160000160006101000a81548173ffffffffffffffffffffffffffffffffffffffff021916908373ffffffffffffffffffffffffffffffffffffffff16021790555060208201518160010155604082015181600201556060820151816003015590505060086000815480929190610d2990613942565b9190505550610d3a33600854611d26565b5050565b610d4f610d49611c65565b82611d44565b610d8e576040517f08c379a0000000000000000000000000000000000000000000000000000000008152600401610d85906139fc565b60405180910390fd5b610d99838383611dd9565b505050565b600660009054906101000a900473ffffffffffffffffffffffffffffffffffffffff1673ffffffffffffffffffffffffffffffffffffffff163373ffffffffffffffffffffffffffffffffffffffff1614610e2e576040517f08c379a0000000000000000000000000000000000000000000000000000000008152600401610e2590613a8e565b60405180910390fd5b6000600660009054906101000a900473ffffffffffffffffffffffffffffffffffffffff1673ffffffffffffffffffffffffffffffffffffffff1647604051610e7690613adf565b60006040518083038185875af1925050503d8060008114610eb3576040519150601f19603f3d011682016040523d82523d6000602084013e610eb8565b606091505b5050905080610efc576040517f08c379a0000000000000000000000000000000000000000000000000000000008152600401610ef390613b40565b60405180910390fd5b50565b610f1a83838360405180602001604052806000815250611a52565b505050565b60098060000160009054906101000a900473ffffffffffffffffffffffffffffffffffffffff16908060010154908060020154908060030154905084565b3373ffffffffffffffffffffffffffffffffffffffff16600960000160009054906101000a900473ffffffffffffffffffffffffffffffffffffffff1673ffffffffffffffffffffffffffffffffffffffff1614610ff0576040517f08c379a0000000000000000000000000000000000000000000000000000000008152600401610fe790613bd2565b60405180910390fd5b6000600960010154905060006009600201549050600060096003015490503373ffffffffffffffffffffffffffffffffffffffff16600f6000858152602001908152602001600020600084815260200190815260200160002060009054906101000a900473ffffffffffffffffffffffffffffffffffffffff1673ffffffffffffffffffffffffffffffffffffffff16146110c0576040517f08c379a00000000000000000000000000000000000000000000000000000000081526004016110b790613c3e565b60405180910390fd5b6000600f6000858152602001908152602001600020600084815260200190815260200160002060006101000a81548173ffffffffffffffffffffffffffffffffffffffff021916908373ffffffffffffffffffffffffffffffffffffffff1602179055506000600e600085815260200190815260200160002060003373ffffffffffffffffffffffffffffffffffffffff1673ffffffffffffffffffffffffffffffffffffffff16815260200190815260200160002060006101000a81548160ff0219169083151502179055506001600d600085815260200190815260200160002060030160008282546111b49190613c5e565b92505081905550600060106000858152602001908152602001600020905060005b818054905081101561129357838282815481106111f5576111f4613c92565b5b906000526020600020015403611280578160018380549050611217919061390e565b8154811061122857611227613c92565b5b906000526020600020015482828154811061124657611245613c92565b5b90600052602060002001819055508180548061126557611264613cc1565b5b60019003818190600052602060002001600090559055611293565b808061128b90613942565b9150506111d5565b5060003373ffffffffffffffffffffffffffffffffffffffff16836040516112ba90613adf565b60006040518083038185875af1925050503d80600081146112f7576040519150601f19603f3d011682016040523d82523d6000602084013e6112fc565b606091505b5050905080611340576040517f08c379a000000000000000000000000000000000000000000000000000000000815260040161133790613d3c565b60405180910390fd5b61134b6008546120d2565b6008600081548092919061135e90613d5c565b91905055506009600080820160006101000a81549073ffffffffffffffffffffffffffffffffffffffff021916905560018201600090556002820160009055600382016000905550505050505050565b6000806113ba83612220565b9050600073ffffffffffffffffffffffffffffffffffffffff168173ffffffffffffffffffffffffffffffffffffffff160361142b576040517f08c379a000000000000000000000000000000000000000000000000000000000815260040161142290613dd1565b60405180910390fd5b80915050919050565b60008073ffffffffffffffffffffffffffffffffffffffff168273ffffffffffffffffffffffffffffffffffffffff16036114a4576040517f08c379a000000000000000000000000000000000000000000000000000000000815260040161149b90613e63565b60405180910390fd5b600360008373ffffffffffffffffffffffffffffffffffffffff1673ffffffffffffffffffffffffffffffffffffffff168152602001908152602001600020549050919050565b6114f3612acc565b600d6000838152602001908152602001600020604051806101000160405290816000820154815260200160018201805461152c9061356e565b80601f01602080910402602001604051908101604052809291908181526020018280546115589061356e565b80156115a55780601f1061157a576101008083540402835291602001916115a5565b820191906000526020600020905b81548152906001019060200180831161158857829003601f168201915b505050505081526020016002820154815260200160038201548152602001600482015481526020016005820180546115dc9061356e565b80601f01602080910402602001604051908101604052809291908181526020018280546116089061356e565b80156116555780601f1061162a57610100808354040283529160200191611655565b820191906000526020600020905b81548152906001019060200180831161163857829003601f168201915b5050505050815260200160068201805461166e9061356e565b80601f016020809104026020016040519081016040528092919081815260200182805461169a9061356e565b80156116e75780601f106116bc576101008083540402835291602001916116e7565b820191906000526020600020905b8154815290600101906020018083116116ca57829003601f168201915b505050505081526020016007820180546117009061356e565b80601f016020809104026020016040519081016040528092919081815260200182805461172c9061356e565b80156117795780601f1061174e57610100808354040283529160200191611779565b820191906000526020600020905b81548152906001019060200180831161175c57829003601f168201915b5050505050815250509050919050565b600660009054906101000a900473ffffffffffffffffffffffffffffffffffffffff1681565b60075481565b6060600180546117c49061356e565b80601f01602080910402602001604051908101604052809291908181526020018280546117f09061356e565b801561183d5780601f106118125761010080835404028352916020019161183d565b820191906000526020600020905b81548152906001019060200180831161182057829003601f168201915b5050505050905090565b600660009054906101000a900473ffffffffffffffffffffffffffffffffffffffff1673ffffffffffffffffffffffffffffffffffffffff163373ffffffffffffffffffffffffffffffffffffffff16146118d7576040517f08c379a00000000000000000000000000000000000000000000000000000000081526004016118ce90613a8e565b60405180910390fd5b600760008154809291906118ea90613942565b9190505550604051806101000160405280600754815260200187815260200186815260200185815260200185815260200184815260200183815260200182815250600d6000600754815260200190815260200160002060008201518160000155602082015181600101908161195f919061402f565b5060408201518160020155606082015181600301556080820151816004015560a0820151816005019081611993919061402f565b5060c08201518160060190816119a9919061402f565b5060e08201518160070190816119bf919061402f565b50905050505050505050565b600e6020528160005260406000206020528060005260406000206000915091509054906101000a900460ff1681565b611a0c611a05611c65565b838361225d565b5050565b600f6020528160005260406000206020528060005260406000206000915091509054906101000a900473ffffffffffffffffffffffffffffffffffffffff1681565b611a63611a5d611c65565b83611d44565b611aa2576040517f08c379a0000000000000000000000000000000000000000000000000000000008152600401611a99906139fc565b60405180910390fd5b611aae848484846123c9565b50505050565b6060611abf82611c1a565b6000611ac9612425565b90506000815111611ae95760405180602001604052806000815250611b14565b80611af38461243c565b604051602001611b0492919061413d565b6040516020818303038152906040525b915050919050565b6000600560008473ffffffffffffffffffffffffffffffffffffffff1673ffffffffffffffffffffffffffffffffffffffff16815260200190815260200160002060008373ffffffffffffffffffffffffffffffffffffffff1673ffffffffffffffffffffffffffffffffffffffff16815260200190815260200160002060009054906101000a900460ff16905092915050565b60007f01ffc9a7000000000000000000000000000000000000000000000000000000007bffffffffffffffffffffffffffffffffffffffffffffffffffffffff1916827bffffffffffffffffffffffffffffffffffffffffffffffffffffffff1916149050919050565b611c238161250a565b611c62576040517f08c379a0000000000000000000000000000000000000000000000000000000008152600401611c5990613dd1565b60405180910390fd5b50565b600033905090565b816004600083815260200190815260200160002060006101000a81548173ffffffffffffffffffffffffffffffffffffffff021916908373ffffffffffffffffffffffffffffffffffffffff160217905550808273ffffffffffffffffffffffffffffffffffffffff16611ce0836113ae565b73ffffffffffffffffffffffffffffffffffffffff167f8c5be1e5ebec7d5bd14f71427d1e84f3dd0314c0f7b2291e5b200ac8c7c3b92560405160405180910390a45050565b611d4082826040518060200160405280600081525061254b565b5050565b600080611d50836113ae565b90508073ffffffffffffffffffffffffffffffffffffffff168473ffffffffffffffffffffffffffffffffffffffff161480611d925750611d918185611b1c565b5b80611dd057508373ffffffffffffffffffffffffffffffffffffffff16611db884610786565b73ffffffffffffffffffffffffffffffffffffffff16145b91505092915050565b8273ffffffffffffffffffffffffffffffffffffffff16611df9826113ae565b73ffffffffffffffffffffffffffffffffffffffff1614611e4f576040517f08c379a0000000000000000000000000000000000000000000000000000000008152600401611e46906141d3565b60405180910390fd5b600073ffffffffffffffffffffffffffffffffffffffff168273ffffffffffffffffffffffffffffffffffffffff1603611ebe576040517f08c379a0000000000000000000000000000000000000000000000000000000008152600401611eb590614265565b60405180910390fd5b611ecb83838360016125a6565b8273ffffffffffffffffffffffffffffffffffffffff16611eeb826113ae565b73ffffffffffffffffffffffffffffffffffffffff1614611f41576040517f08c379a0000000000000000000000000000000000000000000000000000000008152600401611f38906141d3565b60405180910390fd5b6004600082815260200190815260200160002060006101000a81549073ffffffffffffffffffffffffffffffffffffffff02191690556001600360008573ffffffffffffffffffffffffffffffffffffffff1673ffffffffffffffffffffffffffffffffffffffff168152602001908152602001600020600082825403925050819055506001600360008473ffffffffffffffffffffffffffffffffffffffff1673ffffffffffffffffffffffffffffffffffffffff16815260200190815260200160002060008282540192505081905550816002600083815260200190815260200160002060006101000a81548173ffffffffffffffffffffffffffffffffffffffff021916908373ffffffffffffffffffffffffffffffffffffffff160217905550808273ffffffffffffffffffffffffffffffffffffffff168473ffffffffffffffffffffffffffffffffffffffff167fddf252ad1be2c89b69c2b068fc378daa952ba7f163c4a11628f55a4df523b3ef60405160405180910390a46120cd83838360016125ac565b505050565b60006120dd826113ae565b90506120ed8160008460016125a6565b6120f6826113ae565b90506004600083815260200190815260200160002060006101000a81549073ffffffffffffffffffffffffffffffffffffffff02191690556001600360008373ffffffffffffffffffffffffffffffffffffffff1673ffffffffffffffffffffffffffffffffffffffff168152602001908152602001600020600082825403925050819055506002600083815260200190815260200160002060006101000a81549073ffffffffffffffffffffffffffffffffffffffff021916905581600073ffffffffffffffffffffffffffffffffffffffff168273ffffffffffffffffffffffffffffffffffffffff167fddf252ad1be2c89b69c2b068fc378daa952ba7f163c4a11628f55a4df523b3ef60405160405180910390a461221c8160008460016125ac565b5050565b60006002600083815260200190815260200160002060009054906101000a900473ffffffffffffffffffffffffffffffffffffffff169050919050565b8173ffffffffffffffffffffffffffffffffffffffff168373ffffffffffffffffffffffffffffffffffffffff16036122cb576040517f08c379a00000000000000000000000000000000000000000000000000000000081526004016122c2906142d1565b60405180910390fd5b80600560008573ffffffffffffffffffffffffffffffffffffffff1673ffffffffffffffffffffffffffffffffffffffff16815260200190815260200160002060008473ffffffffffffffffffffffffffffffffffffffff1673ffffffffffffffffffffffffffffffffffffffff16815260200190815260200160002060006101000a81548160ff0219169083151502179055508173ffffffffffffffffffffffffffffffffffffffff168373ffffffffffffffffffffffffffffffffffffffff167f17307eab39ab6107e8899845ad3d59bd9653f200f220920489ca2b5937696c31836040516123bc9190612bc5565b60405180910390a3505050565b6123d4848484611dd9565b6123e0848484846125b2565b61241f576040517f08c379a000000000000000000000000000000000000000000000000000000000815260040161241690614363565b60405180910390fd5b50505050565b606060405180602001604052806000815250905090565b60606000600161244b84612739565b01905060008167ffffffffffffffff81111561246a57612469613107565b5b6040519080825280601f01601f19166020018201604052801561249c5781602001600182028036833780820191505090505b509050600082602001820190505b6001156124ff578080600190039150507f3031323334353637383961626364656600000000000000000000000000000000600a86061a8153600a85816124f3576124f2614383565b5b049450600085036124aa575b819350505050919050565b60008073ffffffffffffffffffffffffffffffffffffffff1661252c83612220565b73ffffffffffffffffffffffffffffffffffffffff1614159050919050565b612555838361288c565b61256260008484846125b2565b6125a1576040517f08c379a000000000000000000000000000000000000000000000000000000000815260040161259890614363565b60405180910390fd5b505050565b50505050565b50505050565b60006125d38473ffffffffffffffffffffffffffffffffffffffff16612aa9565b1561272c578373ffffffffffffffffffffffffffffffffffffffff1663150b7a026125fc611c65565b8786866040518563ffffffff1660e01b815260040161261e9493929190614407565b6020604051808303816000875af192505050801561265a57506040513d601f19601f820116820180604052508101906126579190614468565b60015b6126dc573d806000811461268a576040519150601f19603f3d011682016040523d82523d6000602084013e61268f565b606091505b5060008151036126d4576040517f08c379a00000000000000000000000000000000000000000000000000000000081526004016126cb90614363565b60405180910390fd5b805181602001fd5b63150b7a0260e01b7bffffffffffffffffffffffffffffffffffffffffffffffffffffffff1916817bffffffffffffffffffffffffffffffffffffffffffffffffffffffff191614915050612731565b600190505b949350505050565b600080600090507a184f03e93ff9f4daa797ed6e38ed64bf6a1f0100000000000000008310612797577a184f03e93ff9f4daa797ed6e38ed64bf6a1f010000000000000000838161278d5761278c614383565b5b0492506040810190505b6d04ee2d6d415b85acef810000000083106127d4576d04ee2d6d415b85acef810000000083816127ca576127c9614383565b5b0492506020810190505b662386f26fc10000831061280357662386f26fc1000083816127f9576127f8614383565b5b0492506010810190505b6305f5e100831061282c576305f5e100838161282257612821614383565b5b0492506008810190505b612710831061285157612710838161284757612846614383565b5b0492506004810190505b60648310612874576064838161286a57612869614383565b5b0492506002810190505b600a8310612883576001810190505b80915050919050565b600073ffffffffffffffffffffffffffffffffffffffff168273ffffffffffffffffffffffffffffffffffffffff16036128fb576040517f08c379a00000000000000000000000000000000000000000000000000000000081526004016128f2906144e1565b60405180910390fd5b6129048161250a565b15612944576040517f08c379a000000000000000000000000000000000000000000000000000000000815260040161293b9061454d565b60405180910390fd5b6129526000838360016125a6565b61295b8161250a565b1561299b576040517f08c379a00000000000000000000000000000000000000000000000000000000081526004016129929061454d565b60405180910390fd5b6001600360008473ffffffffffffffffffffffffffffffffffffffff1673ffffffffffffffffffffffffffffffffffffffff16815260200190815260200160002060008282540192505081905550816002600083815260200190815260200160002060006101000a81548173ffffffffffffffffffffffffffffffffffffffff021916908373ffffffffffffffffffffffffffffffffffffffff160217905550808273ffffffffffffffffffffffffffffffffffffffff16600073ffffffffffffffffffffffffffffffffffffffff167fddf252ad1be2c89b69c2b068fc378daa952ba7f163c4a11628f55a4df523b3ef60405160405180910390a4612aa56000838360016125ac565b5050565b6000808273ffffffffffffffffffffffffffffffffffffffff163b119050919050565b60405180610100016040528060008152602001606081526020016000815260200160008152602001600081526020016060815260200160608152602001606081525090565b6000604051905090565b600080fd5b600080fd5b60007fffffffff0000000000000000000000000000000000000000000000000000000082169050919050565b612b5a81612b25565b8114612b6557600080fd5b50565b600081359050612b7781612b51565b92915050565b600060208284031215612b9357612b92612b1b565b5b6000612ba184828501612b68565b91505092915050565b60008115159050919050565b612bbf81612baa565b82525050565b6000602082019050612bda6000830184612bb6565b92915050565b600081519050919050565b600082825260208201905092915050565b60005b83811015612c1a578082015181840152602081019050612bff565b60008484015250505050565b6000601f19601f8301169050919050565b6000612c4282612be0565b612c4c8185612beb565b9350612c5c818560208601612bfc565b612c6581612c26565b840191505092915050565b60006020820190508181036000830152612c8a8184612c37565b905092915050565b6000819050919050565b612ca581612c92565b8114612cb057600080fd5b50565b600081359050612cc281612c9c565b92915050565b600060208284031215612cde57612cdd612b1b565b5b6000612cec84828501612cb3565b91505092915050565b600073ffffffffffffffffffffffffffffffffffffffff82169050919050565b6000612d2082612cf5565b9050919050565b612d3081612d15565b82525050565b6000602082019050612d4b6000830184612d27565b92915050565b612d5a81612d15565b8114612d6557600080fd5b50565b600081359050612d7781612d51565b92915050565b60008060408385031215612d9457612d93612b1b565b5b6000612da285828601612d68565b9250506020612db385828601612cb3565b9150509250929050565b600081519050919050565b600082825260208201905092915050565b6000819050602082019050919050565b612df281612c92565b82525050565b6000612e048383612de9565b60208301905092915050565b6000602082019050919050565b6000612e2882612dbd565b612e328185612dc8565b9350612e3d83612dd9565b8060005b83811015612e6e578151612e558882612df8565b9750612e6083612e10565b925050600181019050612e41565b5085935050505092915050565b60006020820190508181036000830152612e958184612e1d565b905092915050565b612ea681612c92565b82525050565b6000602082019050612ec16000830184612e9d565b92915050565b60008060408385031215612ede57612edd612b1b565b5b6000612eec85828601612cb3565b9250506020612efd85828601612cb3565b9150509250929050565b600080600060608486031215612f2057612f1f612b1b565b5b6000612f2e86828701612d68565b9350506020612f3f86828701612d68565b9250506040612f5086828701612cb3565b9150509250925092565b6000608082019050612f6f6000830187612d27565b612f7c6020830186612e9d565b612f896040830185612e9d565b612f966060830184612e9d565b95945050505050565b600060208284031215612fb557612fb4612b1b565b5b6000612fc384828501612d68565b91505092915050565b600082825260208201905092915050565b6000612fe882612be0565b612ff28185612fcc565b9350613002818560208601612bfc565b61300b81612c26565b840191505092915050565b60006101008301600083015161302f6000860182612de9565b50602083015184820360208601526130478282612fdd565b915050604083015161305c6040860182612de9565b50606083015161306f6060860182612de9565b5060808301516130826080860182612de9565b5060a083015184820360a086015261309a8282612fdd565b91505060c083015184820360c08601526130b48282612fdd565b91505060e083015184820360e08601526130ce8282612fdd565b9150508091505092915050565b600060208201905081810360008301526130f58184613016565b905092915050565b600080fd5b600080fd5b7f4e487b7100000000000000000000000000000000000000000000000000000000600052604160045260246000fd5b61313f82612c26565b810181811067ffffffffffffffff8211171561315e5761315d613107565b5b80604052505050565b6000613171612b11565b905061317d8282613136565b919050565b600067ffffffffffffffff82111561319d5761319c613107565b5b6131a682612c26565b9050602081019050919050565b82818337600083830152505050565b60006131d56131d084613182565b613167565b9050828152602081018484840111156131f1576131f0613102565b5b6131fc8482856131b3565b509392505050565b600082601f830112613219576132186130fd565b5b81356132298482602086016131c2565b91505092915050565b60008060008060008060c0878903121561324f5761324e612b1b565b5b600087013567ffffffffffffffff81111561326d5761326c612b20565b5b61327989828a01613204565b965050602061328a89828a01612cb3565b955050604061329b89828a01612cb3565b945050606087013567ffffffffffffffff8111156132bc576132bb612b20565b5b6132c889828a01613204565b935050608087013567ffffffffffffffff8111156132e9576132e8612b20565b5b6132f589828a01613204565b92505060a087013567ffffffffffffffff81111561331657613315612b20565b5b61332289828a01613204565b9150509295509295509295565b6000806040838503121561334657613345612b1b565b5b600061335485828601612cb3565b925050602061336585828601612d68565b9150509250929050565b61337881612baa565b811461338357600080fd5b50565b6000813590506133958161336f565b92915050565b600080604083850312156133b2576133b1612b1b565b5b60006133c085828601612d68565b92505060206133d185828601613386565b9150509250929050565b600067ffffffffffffffff8211156133f6576133f5613107565b5b6133ff82612c26565b9050602081019050919050565b600061341f61341a846133db565b613167565b90508281526020810184848401111561343b5761343a613102565b5b6134468482856131b3565b509392505050565b600082601f830112613463576134626130fd565b5b813561347384826020860161340c565b91505092915050565b6000806000806080858703121561349657613495612b1b565b5b60006134a487828801612d68565b94505060206134b587828801612d68565b93505060406134c687828801612cb3565b925050606085013567ffffffffffffffff8111156134e7576134e6612b20565b5b6134f38782880161344e565b91505092959194509250565b6000806040838503121561351657613515612b1b565b5b600061352485828601612d68565b925050602061353585828601612d68565b9150509250929050565b7f4e487b7100000000000000000000000000000000000000000000000000000000600052602260045260246000fd5b6000600282049050600182168061358657607f821691505b6020821081036135995761359861353f565b5b50919050565b7f4552433732313a20617070726f76616c20746f2063757272656e74206f776e6560008201527f7200000000000000000000000000000000000000000000000000000000000000602082015250565b60006135fb602183612beb565b91506136068261359f565b604082019050919050565b6000602082019050818103600083015261362a816135ee565b9050919050565b7f4552433732313a20617070726f76652063616c6c6572206973206e6f7420746f60008201527f6b656e206f776e6572206f7220617070726f76656420666f7220616c6c000000602082015250565b600061368d603d83612beb565b915061369882613631565b604082019050919050565b600060208201905081810360008301526136bc81613680565b9050919050565b7f496e76616c6964206f63636173696f6e20494400000000000000000000000000600082015250565b60006136f9601383612beb565b9150613704826136c3565b602082019050919050565b60006020820190508181036000830152613728816136ec565b9050919050565b7f4f63636173696f6e20646f6573206e6f74206578697374000000000000000000600082015250565b6000613765601783612beb565b91506137708261372f565b602082019050919050565b6000602082019050818103600083015261379481613758565b9050919050565b7f496e73756666696369656e74204554482073656e740000000000000000000000600082015250565b60006137d1601583612beb565b91506137dc8261379b565b602082019050919050565b60006020820190508181036000830152613800816137c4565b9050919050565b7f5365617420616c72656164792074616b656e0000000000000000000000000000600082015250565b600061383d601283612beb565b915061384882613807565b602082019050919050565b6000602082019050818103600083015261386c81613830565b9050919050565b7f53656174206e756d6265722065786365656473206d6178207469636b65747300600082015250565b60006138a9601f83612beb565b91506138b482613873565b602082019050919050565b600060208201905081810360008301526138d88161389c565b9050919050565b7f4e487b7100000000000000000000000000000000000000000000000000000000600052601160045260246000fd5b600061391982612c92565b915061392483612c92565b925082820390508181111561393c5761393b6138df565b5b92915050565b600061394d82612c92565b91507fffffffffffffffffffffffffffffffffffffffffffffffffffffffffffffffff820361397f5761397e6138df565b5b600182019050919050565b7f4552433732313a2063616c6c6572206973206e6f7420746f6b656e206f776e6560008201527f72206f7220617070726f76656400000000000000000000000000000000000000602082015250565b60006139e6602d83612beb565b91506139f18261398a565b604082019050919050565b60006020820190508181036000830152613a15816139d9565b9050919050565b7f4f6e6c7920746865206f776e65722063616e2063616c6c20746869732066756e60008201527f6374696f6e000000000000000000000000000000000000000000000000000000602082015250565b6000613a78602583612beb565b9150613a8382613a1c565b604082019050919050565b60006020820190508181036000830152613aa781613a6b565b9050919050565b600081905092915050565b50565b6000613ac9600083613aae565b9150613ad482613ab9565b600082019050919050565b6000613aea82613abc565b9150819050919050565b7f5769746864726177616c206661696c6564000000000000000000000000000000600082015250565b6000613b2a601183612beb565b9150613b3582613af4565b602082019050919050565b60006020820190508181036000830152613b5981613b1d565b9050919050565b7f596f7520617265206e6f7420746865206275796572206f6620746865206c617360008201527f7420707572636861736500000000000000000000000000000000000000000000602082015250565b6000613bbc602a83612beb565b9150613bc782613b60565b604082019050919050565b60006020820190508181036000830152613beb81613baf565b9050919050565b7f596f7520646f206e6f74206f776e207468697320736561740000000000000000600082015250565b6000613c28601883612beb565b9150613c3382613bf2565b602082019050919050565b60006020820190508181036000830152613c5781613c1b565b9050919050565b6000613c6982612c92565b9150613c7483612c92565b9250828201905080821115613c8c57613c8b6138df565b5b92915050565b7f4e487b7100000000000000000000000000000000000000000000000000000000600052603260045260246000fd5b7f4e487b7100000000000000000000000000000000000000000000000000000000600052603160045260246000fd5b7f526566756e64206661696c656400000000000000000000000000000000000000600082015250565b6000613d26600d83612beb565b9150613d3182613cf0565b602082019050919050565b60006020820190508181036000830152613d5581613d19565b9050919050565b6000613d6782612c92565b915060008203613d7a57613d796138df565b5b600182039050919050565b7f4552433732313a20696e76616c696420746f6b656e2049440000000000000000600082015250565b6000613dbb601883612beb565b9150613dc682613d85565b602082019050919050565b60006020820190508181036000830152613dea81613dae565b9050919050565b7f4552433732313a2061646472657373207a65726f206973206e6f74206120766160008201527f6c6964206f776e65720000000000000000000000000000000000000000000000602082015250565b6000613e4d602983612beb565b9150613e5882613df1565b604082019050919050565b60006020820190508181036000830152613e7c81613e40565b9050919050565b60008190508160005260206000209050919050565b60006020601f8301049050919050565b600082821b905092915050565b600060088302613ee57fffffffffffffffffffffffffffffffffffffffffffffffffffffffffffffffff82613ea8565b613eef8683613ea8565b95508019841693508086168417925050509392505050565b6000819050919050565b6000613f2c613f27613f2284612c92565b613f07565b612c92565b9050919050565b6000819050919050565b613f4683613f11565b613f5a613f5282613f33565b848454613eb5565b825550505050565b600090565b613f6f613f62565b613f7a818484613f3d565b505050565b5b81811015613f9e57613f93600082613f67565b600181019050613f80565b5050565b601f821115613fe357613fb481613e83565b613fbd84613e98565b81016020851015613fcc578190505b613fe0613fd885613e98565b830182613f7f565b50505b505050565b600082821c905092915050565b600061400660001984600802613fe8565b1980831691505092915050565b600061401f8383613ff5565b9150826002028217905092915050565b61403882612be0565b67ffffffffffffffff81111561405157614050613107565b5b61405b825461356e565b614066828285613fa2565b600060209050601f8311600181146140995760008415614087578287015190505b6140918582614013565b8655506140f9565b601f1984166140a786613e83565b60005b828110156140cf578489015182556001820191506020850194506020810190506140aa565b868310156140ec57848901516140e8601f891682613ff5565b8355505b6001600288020188555050505b505050505050565b600081905092915050565b600061411782612be0565b6141218185614101565b9350614131818560208601612bfc565b80840191505092915050565b6000614149828561410c565b9150614155828461410c565b91508190509392505050565b7f4552433732313a207472616e736665722066726f6d20696e636f72726563742060008201527f6f776e6572000000000000000000000000000000000000000000000000000000602082015250565b60006141bd602583612beb565b91506141c882614161565b604082019050919050565b600060208201905081810360008301526141ec816141b0565b9050919050565b7f4552433732313a207472616e7366657220746f20746865207a65726f2061646460008201527f7265737300000000000000000000000000000000000000000000000000000000602082015250565b600061424f602483612beb565b915061425a826141f3565b604082019050919050565b6000602082019050818103600083015261427e81614242565b9050919050565b7f4552433732313a20617070726f766520746f2063616c6c657200000000000000600082015250565b60006142bb601983612beb565b91506142c682614285565b602082019050919050565b600060208201905081810360008301526142ea816142ae565b9050919050565b7f4552433732313a207472616e7366657220746f206e6f6e20455243373231526560008201527f63656976657220696d706c656d656e7465720000000000000000000000000000602082015250565b600061434d603283612beb565b9150614358826142f1565b604082019050919050565b6000602082019050818103600083015261437c81614340565b9050919050565b7f4e487b7100000000000000000000000000000000000000000000000000000000600052601260045260246000fd5b600081519050919050565b600082825260208201905092915050565b60006143d9826143b2565b6143e381856143bd565b93506143f3818560208601612bfc565b6143fc81612c26565b840191505092915050565b600060808201905061441c6000830187612d27565b6144296020830186612d27565b6144366040830185612e9d565b818103606083015261444881846143ce565b905095945050505050565b60008151905061446281612b51565b92915050565b60006020828403121561447e5761447d612b1b565b5b600061448c84828501614453565b91505092915050565b7f4552433732313a206d696e7420746f20746865207a65726f2061646472657373600082015250565b60006144cb602083612beb565b91506144d682614495565b602082019050919050565b600060208201905081810360008301526144fa816144be565b9050919050565b7f4552433732313a20746f6b656e20616c7265616479206d696e74656400000000600082015250565b6000614537601c83612beb565b915061454282614501565b602082019050919050565b600060208201905081810360008301526145668161452a565b905091905056fea264697066735822122010696d5dcedf880e81c19c12453932b2b6821de758659df4fc518a2bb034d93f64736f6c63430008110033",
  "linkReferences": {},
  "deployedLinkReferences": {}
}