{
  "_format": "hh-sol-artifact-1",
  "contractName": "TokenMaster",
  "sourceName": "contracts/TokenMaster.sol",
  "abi": [
    {
      "inputs": [
        {
          "internalType": "string",
          "name": "_name",
          "type": "string"
        },
        {
          "internalType": "string",
          "name": "_symbol",
          "type": "string"
        }
      ],
      "stateMutability": "nonpayable",
      "type": "constructor"
    },
    {
      "anonymous": false,
      "inputs": [
        {
          "indexed": true,
          "internalType": "address",
          "name": "owner",
          "type": "address"
        },
        {
          "indexed": true,
          "internalType": "address",
          "name": "approved",
          "type": "address"
        },
        {
          "indexed": true,
          "internalType": "uint256",
          "name": "tokenId",
          "type": "uint256"
        }
      ],
      "name": "Approval",
      "type": "event"
    },
    {
      "anonymous": false,
      "inputs": [
        {
          "indexed": true,
          "internalType": "address",
          "name": "owner",
          "type": "address"
        },
        {
          "indexed": true,
          "internalType": "address",
          "name": "operator",
          "type": "address"
        },
        {
          "indexed": false,
          "internalType": "bool",
          "name": "approved",
          "type": "bool"
        }
      ],
      "name": "ApprovalForAll",
      "type": "event"
    },
    {
      "anonymous": false,
      "inputs": [
        {
          "indexed": true,
          "internalType": "address",
          "name": "from",
          "type": "address"
        },
        {
          "indexed": true,
          "internalType": "address",
          "name": "to",
          "type": "address"
        },
        {
          "indexed": true,
          "internalType": "uint256",
          "name": "tokenId",
          "type": "uint256"
        }
      ],
      "name": "Transfer",
      "type": "event"
    },
    {
      "inputs": [
        {
          "internalType": "address",
          "name": "to",
          "type": "address"
        },
        {
          "internalType": "uint256",
          "name": "tokenId",
          "type": "uint256"
        }
      ],
      "name": "approve",
      "outputs": [],
      "stateMutability": "nonpayable",
      "type": "function"
    },
    {
      "inputs": [
        {
          "internalType": "address",
          "name": "owner",
          "type": "address"
        }
      ],
      "name": "balanceOf",
      "outputs": [
        {
          "internalType": "uint256",
          "name": "",
          "type": "uint256"
        }
      ],
      "stateMutability": "view",
      "type": "function"
    },
    {
      "inputs": [
        {
          "internalType": "uint256",
          "name": "tokenId",
          "type": "uint256"
        }
      ],
      "name": "getApproved",
      "outputs": [
        {
          "internalType": "address",
          "name": "",
          "type": "address"
        }
      ],
      "stateMutability": "view",
      "type": "function"
    },
    {
      "inputs": [
        {
          "internalType": "uint256",
          "name": "_id",
          "type": "uint256"
        }
      ],
      "name": "getOccasion",
      "outputs": [
        {
          "components": [
            {
              "internalType": "uint256",
              "name": "id",
              "type": "uint256"
            },
            {
              "internalType": "string",
              "name": "name",
              "type": "string"
            },
            {
              "internalType": "uint256",
              "name": "cost",
              "type": "uint256"
            },
            {
              "internalType": "uint256",
              "name": "tickets",
              "type": "uint256"
            },
            {
              "internalType": "uint256",
              "name": "maxTickets",
              "type": "uint256"
            },
            {
              "internalType": "uint256",
              "name": "eventTimestamp",
              "type": "uint256"
            },
            {
              "internalType": "string",
              "name": "time",
              "type": "string"
            },
            {
              "internalType": "string",
              "name": "location",
              "type": "string"
            }
          ],
          "internalType": "struct TokenMaster.Occasion",
          "name": "",
          "type": "tuple"
        }
      ],
      "stateMutability": "view",
      "type": "function"
    },
    {
      "inputs": [
        {
          "internalType": "uint256",
          "name": "_id",
          "type": "uint256"
        }
      ],
      "name": "getSeatsTaken",
      "outputs": [
        {
          "internalType": "uint256[]",
          "name": "",
          "type": "uint256[]"
        }
      ],
      "stateMutability": "view",
      "type": "function"
    },
    {
      "inputs": [
        {
          "internalType": "uint256",
          "name": "",
          "type": "uint256"
        },
        {
          "internalType": "address",
          "name": "",
          "type": "address"
        }
      ],
      "name": "hasBought",
      "outputs": [
        {
          "internalType": "bool",
          "name": "",
          "type": "bool"
        }
      ],
      "stateMutability": "view",
      "type": "function"
    },
    {
      "inputs": [
        {
          "internalType": "address",
          "name": "owner",
          "type": "address"
        },
        {
          "internalType": "address",
          "name": "operator",
          "type": "address"
        }
      ],
      "name": "isApprovedForAll",
      "outputs": [
        {
          "internalType": "bool",
          "name": "",
          "type": "bool"
        }
      ],
      "stateMutability": "view",
      "type": "function"
    },
    {
      "inputs": [],
      "name": "lastPurchase",
      "outputs": [
        {
          "internalType": "address",
          "name": "buyer",
          "type": "address"
        },
        {
          "internalType": "uint256",
          "name": "occasionId",
          "type": "uint256"
        },
        {
          "internalType": "uint256",
          "name": "seat",
          "type": "uint256"
        },
        {
          "internalType": "uint256",
          "name": "amount",
          "type": "uint256"
        }
      ],
      "stateMutability": "view",
      "type": "function"
    },
    {
      "inputs": [
        {
          "internalType": "string",
          "name": "_name",
          "type": "string"
        },
        {
          "internalType": "uint256",
          "name": "_cost",
          "type": "uint256"
        },
        {
          "internalType": "uint256",
          "name": "_maxTickets",
          "type": "uint256"
        },
        {
          "internalType": "uint256",
          "name": "_eventTimestamp",
          "type": "uint256"
        },
        {
          "internalType": "string",
          "name": "_time",
          "type": "string"
        },
        {
          "internalType": "string",
          "name": "_location",
          "type": "string"
        }
      ],
      "name": "list",
      "outputs": [],
      "stateMutability": "nonpayable",
      "type": "function"
    },
    {
      "inputs": [
        {
          "internalType": "uint256",
          "name": "_id",
          "type": "uint256"
        },
        {
          "internalType": "uint256",
          "name": "_seat",
          "type": "uint256"
        }
      ],
      "name": "mint",
      "outputs": [],
      "stateMutability": "payable",
      "type": "function"
    },
    {
      "inputs": [],
      "name": "name",
      "outputs": [
        {
          "internalType": "string",
          "name": "",
          "type": "string"
        }
      ],
      "stateMutability": "view",
      "type": "function"
    },
    {
      "inputs": [],
      "name": "owner",
      "outputs": [
        {
          "internalType": "address",
          "name": "",
          "type": "address"
        }
      ],
      "stateMutability": "view",
      "type": "function"
    },
    {
      "inputs": [
        {
          "internalType": "uint256",
          "name": "tokenId",
          "type": "uint256"
        }
      ],
      "name": "ownerOf",
      "outputs": [
        {
          "internalType": "address",
          "name": "",
          "type": "address"
        }
      ],
      "stateMutability": "view",
      "type": "function"
    },
    {
      "inputs": [],
      "name": "refund",
      "outputs": [],
      "stateMutability": "nonpayable",
      "type": "function"
    },
    {
      "inputs": [
        {
          "internalType": "address",
          "name": "from",
          "type": "address"
        },
        {
          "internalType": "address",
          "name": "to",
          "type": "address"
        },
        {
          "internalType": "uint256",
          "name": "tokenId",
          "type": "uint256"
        }
      ],
      "name": "safeTransferFrom",
      "outputs": [],
      "stateMutability": "nonpayable",
      "type": "function"
    },
    {
      "inputs": [
        {
          "internalType": "address",
          "name": "from",
          "type": "address"
        },
        {
          "internalType": "address",
          "name": "to",
          "type": "address"
        },
        {
          "internalType": "uint256",
          "name": "tokenId",
          "type": "uint256"
        },
        {
          "internalType": "bytes",
          "name": "data",
          "type": "bytes"
        }
      ],
      "name": "safeTransferFrom",
      "outputs": [],
      "stateMutability": "nonpayable",
      "type": "function"
    },
    {
      "inputs": [
        {
          "internalType": "uint256",
          "name": "",
          "type": "uint256"
        },
        {
          "internalType": "uint256",
          "name": "",
          "type": "uint256"
        }
      ],
      "name": "seatTaken",
      "outputs": [
        {
          "internalType": "address",
          "name": "",
          "type": "address"
        }
      ],
      "stateMutability": "view",
      "type": "function"
    },
    {
      "inputs": [
        {
          "internalType": "address",
          "name": "operator",
          "type": "address"
        },
        {
          "internalType": "bool",
          "name": "approved",
          "type": "bool"
        }
      ],
      "name": "setApprovalForAll",
      "outputs": [],
      "stateMutability": "nonpayable",
      "type": "function"
    },
    {
      "inputs": [
        {
          "internalType": "bytes4",
          "name": "interfaceId",
          "type": "bytes4"
        }
      ],
      "name": "supportsInterface",
      "outputs": [
        {
          "internalType": "bool",
          "name": "",
          "type": "bool"
        }
      ],
      "stateMutability": "view",
      "type": "function"
    },
    {
      "inputs": [],
      "name": "symbol",
      "outputs": [
        {
          "internalType": "string",
          "name": "",
          "type": "string"
        }
      ],
      "stateMutability": "view",
      "type": "function"
    },
    {
      "inputs": [
        {
          "internalType": "uint256",
          "name": "tokenId",
          "type": "uint256"
        }
      ],
      "name": "tokenURI",
      "outputs": [
        {
          "internalType": "string",
          "name": "",
          "type": "string"
        }
      ],
      "stateMutability": "view",
      "type": "function"
    },
    {
      "inputs": [],
      "name": "totalOccasions",
      "outputs": [
        {
          "internalType": "uint256",
          "name": "",
          "type": "uint256"
        }
      ],
      "stateMutability": "view",
      "type": "function"
    },
    {
      "inputs": [],
      "name": "totalSupply",
      "outputs": [
        {
          "internalType": "uint256",
          "name": "",
          "type": "uint256"
        }
      ],
      "stateMutability": "view",
      "type": "function"
    },
    {
      "inputs": [
        {
          "internalType": "address",
          "name": "from",
          "type": "address"
        },
        {
          "internalType": "address",
          "name": "to",
          "type": "address"
        },
        {
          "internalType": "uint256",
          "name": "tokenId",
          "type": "uint256"
        }
      ],
      "name": "transferFrom",
      "outputs": [],
      "stateMutability": "nonpayable",
      "type": "function"
    },
    {
      "inputs": [],
      "name": "withdraw",
      "outputs": [],
      "stateMutability": "nonpayable",
      "type": "function"
    }
  ],
  "bytecode": "0x60806040523480156200001157600080fd5b5060405162004d0938038062004d0983398181016040528101906200003791906200023b565b818181600090816200004a91906200050b565b5080600190816200005c91906200050b565b50505033600660006101000a81548173ffffffffffffffffffffffffffffffffffffffff021916908373ffffffffffffffffffffffffffffffffffffffff1602179055505050620005f2565b6000604051905090565b600080fd5b600080fd5b600080fd5b600080fd5b6000601f19601f8301169050919050565b7f4e487b7100000000000000000000000000000000000000000000000000000000600052604160045260246000fd5b6200011182620000c6565b810181811067ffffffffffffffff82111715620001335762000132620000d7565b5b80604052505050565b600062000148620000a8565b905062000156828262000106565b919050565b600067ffffffffffffffff821115620001795762000178620000d7565b5b6200018482620000c6565b9050602081019050919050565b60005b83811015620001b157808201518184015260208101905062000194565b60008484015250505050565b6000620001d4620001ce846200015b565b6200013c565b905082815260208101848484011115620001f357620001f2620000c1565b5b6200020084828562000191565b509392505050565b600082601f83011262000220576200021f620000bc565b5b815162000232848260208601620001bd565b91505092915050565b60008060408385031215620002555762000254620000b2565b5b600083015167ffffffffffffffff811115620002765762000275620000b7565b5b620002848582860162000208565b925050602083015167ffffffffffffffff811115620002a857620002a7620000b7565b5b620002b68582860162000208565b9150509250929050565b600081519050919050565b7f4e487b7100000000000000000000000000000000000000000000000000000000600052602260045260246000fd5b600060028204905060018216806200031357607f821691505b602082108103620003295762000328620002cb565b5b50919050565b60008190508160005260206000209050919050565b60006020601f8301049050919050565b600082821b905092915050565b600060088302620003937fffffffffffffffffffffffffffffffffffffffffffffffffffffffffffffffff8262000354565b6200039f868362000354565b95508019841693508086168417925050509392505050565b6000819050919050565b6000819050919050565b6000620003ec620003e6620003e084620003b7565b620003c1565b620003b7565b9050919050565b6000819050919050565b6200040883620003cb565b620004206200041782620003f3565b84845462000361565b825550505050565b600090565b6200043762000428565b62000444818484620003fd565b505050565b5b818110156200046c57620004606000826200042d565b6001810190506200044a565b5050565b601f821115620004bb5762000485816200032f565b620004908462000344565b81016020851015620004a0578190505b620004b8620004af8562000344565b83018262000449565b50505b505050565b600082821c905092915050565b6000620004e060001984600802620004c0565b1980831691505092915050565b6000620004fb8383620004cd565b9150826002028217905092915050565b6200051682620002c0565b67ffffffffffffffff811115620005325762000531620000d7565b5b6200053e8254620002fa565b6200054b82828562000470565b600060209050601f8311600181146200058357600084156200056e578287015190505b6200057a8582620004ed565b865550620005ea565b601f19841662000593866200032f565b60005b82811015620005bd5784890151825560018201915060208501945060208101905062000596565b86831015620005dd5784890151620005d9601f891682620004cd565b8355505b6001600288020188555050505b505050505050565b61470780620006026000396000f3fe6080604052600436106101665760003560e01c80636352211e116100d15780639cb04aef1161008a578063b88d4fde11610064578063b88d4fde14610546578063c87b56dd1461056f578063e7cf3ac2146105ac578063e985e9c5146105d557610166565b80639cb04aef146104a3578063a22cb465146104e0578063af296da11461050957610166565b80636352211e1461036b57806370a08231146103a857806374bc8656146103e55780638da5cb5b14610422578063953865c11461044d57806395d89b411461047857610166565b80631b2ef1ca116101235780631b2ef1ca146102a157806323b872dd146102bd5780633ccfd60b146102e657806342842e0e146102fd5780634528f3ec14610326578063590e1ae31461035457610166565b806301ffc9a71461016b57806306fdde03146101a8578063081812fc146101d3578063095ea7b3146102105780630ef7ec741461023957806318160ddd14610276575b600080fd5b34801561017757600080fd5b50610192600480360381019061018d9190612bd5565b610612565b60405161019f9190612c1d565b60405180910390f35b3480156101b457600080fd5b506101bd6106f4565b6040516101ca9190612cc8565b60405180910390f35b3480156101df57600080fd5b506101fa60048036038101906101f59190612d20565b610786565b6040516102079190612d8e565b60405180910390f35b34801561021c57600080fd5b5061023760048036038101906102329190612dd5565b6107cc565b005b34801561024557600080fd5b50610260600480360381019061025b9190612d20565b6108e3565b60405161026d9190612ed3565b60405180910390f35b34801561028257600080fd5b5061028b61094e565b6040516102989190612f04565b60405180910390f35b6102bb60048036038101906102b69190612f1f565b610954565b005b3480156102c957600080fd5b506102e460048036038101906102df9190612f5f565b610d3e565b005b3480156102f257600080fd5b506102fb610d9e565b005b34801561030957600080fd5b50610324600480360381019061031f9190612f5f565b610eff565b005b34801561033257600080fd5b5061033b610f1f565b60405161034b9493929190612fb2565b60405180910390f35b34801561036057600080fd5b50610369610f5d565b005b34801561037757600080fd5b50610392600480360381019061038d9190612d20565b61149a565b60405161039f9190612d8e565b60405180910390f35b3480156103b457600080fd5b506103cf60048036038101906103ca9190612ff7565b611520565b6040516103dc9190612f04565b60405180910390f35b3480156103f157600080fd5b5061040c60048036038101906104079190612d20565b6115d7565b604051610419919061312c565b60405180910390f35b34801561042e57600080fd5b506104376117ed565b6040516104449190612d8e565b60405180910390f35b34801561045957600080fd5b50610462611813565b60405161046f9190612f04565b60405180910390f35b34801561048457600080fd5b5061048d611819565b60405161049a9190612cc8565b60405180910390f35b3480156104af57600080fd5b506104ca60048036038101906104c5919061314e565b6118ab565b6040516104d79190612c1d565b60405180910390f35b3480156104ec57600080fd5b50610507600480360381019061050291906131ba565b6118da565b005b34801561051557600080fd5b50610530600480360381019061052b9190612f1f565b6118f0565b60405161053d9190612d8e565b60405180910390f35b34801561055257600080fd5b5061056d6004803603810190610568919061332f565b611932565b005b34801561057b57600080fd5b5061059660048036038101906105919190612d20565b611994565b6040516105a39190612cc8565b60405180910390f35b3480156105b857600080fd5b506105d360048036038101906105ce9190613453565b6119fc565b005b3480156105e157600080fd5b506105fc60048036038101906105f79190613534565b611b74565b6040516106099190612c1d565b60405180910390f35b60007f80ac58cd000000000000000000000000000000000000000000000000000000007bffffffffffffffffffffffffffffffffffffffffffffffffffffffff1916827bffffffffffffffffffffffffffffffffffffffffffffffffffffffff191614806106dd57507f5b5e139f000000000000000000000000000000000000000000000000000000007bffffffffffffffffffffffffffffffffffffffffffffffffffffffff1916827bffffffffffffffffffffffffffffffffffffffffffffffffffffffff1916145b806106ed57506106ec82611c08565b5b9050919050565b606060008054610703906135a3565b80601f016020809104026020016040519081016040528092919081815260200182805461072f906135a3565b801561077c5780601f106107515761010080835404028352916020019161077c565b820191906000526020600020905b81548152906001019060200180831161075f57829003601f168201915b5050505050905090565b600061079182611c72565b6004600083815260200190815260200160002060009054906101000a900473ffffffffffffffffffffffffffffffffffffffff169050919050565b60006107d78261149a565b90508073ffffffffffffffffffffffffffffffffffffffff168373ffffffffffffffffffffffffffffffffffffffff1603610847576040517f08c379a000000000000000000000000000000000000000000000000000000000815260040161083e90613646565b60405180910390fd5b8073ffffffffffffffffffffffffffffffffffffffff16610866611cbd565b73ffffffffffffffffffffffffffffffffffffffff16148061089557506108948161088f611cbd565b611b74565b5b6108d4576040517f08c379a00000000000000000000000000000000000000000000000000000000081526004016108cb906136d8565b60405180910390fd5b6108de8383611cc5565b505050565b60606010600083815260200190815260200160002080548060200260200160405190810160405280929190818152602001828054801561094257602002820191906000526020600020905b81548152602001906001019080831161092e575b50505050509050919050565b60085481565b60008203610997576040517f08c379a000000000000000000000000000000000000000000000000000000000815260040161098e90613744565b60405180910390fd5b6007548211156109dc576040517f08c379a00000000000000000000000000000000000000000000000000000000081526004016109d3906137b0565b60405180910390fd5b600d600083815260200190815260200160002060020154341015610a35576040517f08c379a0000000000000000000000000000000000000000000000000000000008152600401610a2c9061381c565b60405180910390fd5b600073ffffffffffffffffffffffffffffffffffffffff16600f6000848152602001908152602001600020600083815260200190815260200160002060009054906101000a900473ffffffffffffffffffffffffffffffffffffffff1673ffffffffffffffffffffffffffffffffffffffff1614610ae8576040517f08c379a0000000000000000000000000000000000000000000000000000000008152600401610adf90613888565b60405180910390fd5b600d600083815260200190815260200160002060040154811115610b41576040517f08c379a0000000000000000000000000000000000000000000000000000000008152600401610b38906138f4565b60405180910390fd5b6001600d60008481526020019081526020016000206003016000828254610b689190613943565b925050819055506001600e600084815260200190815260200160002060003373ffffffffffffffffffffffffffffffffffffffff1673ffffffffffffffffffffffffffffffffffffffff16815260200190815260200160002060006101000a81548160ff02191690831515021790555033600f6000848152602001908152602001600020600083815260200190815260200160002060006101000a81548173ffffffffffffffffffffffffffffffffffffffff021916908373ffffffffffffffffffffffffffffffffffffffff1602179055506010600083815260200190815260200160002081908060018154018082558091505060019003906000526020600020016000909190919091505560405180608001604052803373ffffffffffffffffffffffffffffffffffffffff16815260200183815260200182815260200134815250600960008201518160000160006101000a81548173ffffffffffffffffffffffffffffffffffffffff021916908373ffffffffffffffffffffffffffffffffffffffff16021790555060208201518160010155604082015181600201556060820151816003015590505060086000815480929190610d2990613977565b9190505550610d3a33600854611d7e565b5050565b610d4f610d49611cbd565b82611d9c565b610d8e576040517f08c379a0000000000000000000000000000000000000000000000000000000008152600401610d8590613a31565b60405180910390fd5b610d99838383611e31565b505050565b600660009054906101000a900473ffffffffffffffffffffffffffffffffffffffff1673ffffffffffffffffffffffffffffffffffffffff163373ffffffffffffffffffffffffffffffffffffffff1614610e2e576040517f08c379a0000000000000000000000000000000000000000000000000000000008152600401610e2590613ac3565b60405180910390fd5b6000600660009054906101000a900473ffffffffffffffffffffffffffffffffffffffff1673ffffffffffffffffffffffffffffffffffffffff1647604051610e7690613b14565b60006040518083038185875af1925050503d8060008114610eb3576040519150601f19603f3d011682016040523d82523d6000602084013e610eb8565b606091505b5050905080610efc576040517f08c379a0000000000000000000000000000000000000000000000000000000008152600401610ef390613b75565b60405180910390fd5b50565b610f1a83838360405180602001604052806000815250611932565b505050565b60098060000160009054906101000a900473ffffffffffffffffffffffffffffffffffffffff16908060010154908060020154908060030154905084565b3373ffffffffffffffffffffffffffffffffffffffff16600960000160009054906101000a900473ffffffffffffffffffffffffffffffffffffffff1673ffffffffffffffffffffffffffffffffffffffff1614610ff0576040517f08c379a0000000000000000000000000000000000000000000000000000000008152600401610fe790613c07565b60405180910390fd5b6000600960010154905060006009600201549050600060096003015490503373ffffffffffffffffffffffffffffffffffffffff16600f6000858152602001908152602001600020600084815260200190815260200160002060009054906101000a900473ffffffffffffffffffffffffffffffffffffffff1673ffffffffffffffffffffffffffffffffffffffff16146110c0576040517f08c379a00000000000000000000000000000000000000000000000000000000081526004016110b790613c73565b60405180910390fd5b60004290506000600d6000868152602001908152602001600020600501549050600081831115611125576040517f08c379a000000000000000000000000000000000000000000000000000000000815260040161111c90613cdf565b60405180910390fd5b62278d0083836111359190613943565b1115611143578390506111a9565b6213c68083836111539190613943565b111561116d576002846111669190613d2e565b90506111a8565b6040517f08c379a000000000000000000000000000000000000000000000000000000000815260040161119f90613dd1565b60405180910390fd5b5b6000600f6000888152602001908152602001600020600087815260200190815260200160002060006101000a81548173ffffffffffffffffffffffffffffffffffffffff021916908373ffffffffffffffffffffffffffffffffffffffff1602179055506000600e600088815260200190815260200160002060003373ffffffffffffffffffffffffffffffffffffffff1673ffffffffffffffffffffffffffffffffffffffff16815260200190815260200160002060006101000a81548160ff0219169083151502179055506001600d6000888152602001908152602001600020600301600082825461129d9190613df1565b92505081905550600060106000888152602001908152602001600020905060005b818054905081101561137c57868282815481106112de576112dd613e25565b5b9060005260206000200154036113695781600183805490506113009190613943565b8154811061131157611310613e25565b5b906000526020600020015482828154811061132f5761132e613e25565b5b90600052602060002001819055508180548061134e5761134d613e54565b5b6001900381819060005260206000200160009055905561137c565b808061137490613977565b9150506112be565b5060003373ffffffffffffffffffffffffffffffffffffffff16836040516113a390613b14565b60006040518083038185875af1925050503d80600081146113e0576040519150601f19603f3d011682016040523d82523d6000602084013e6113e5565b606091505b5050905080611429576040517f08c379a000000000000000000000000000000000000000000000000000000000815260040161142090613ecf565b60405180910390fd5b61143460085461212a565b6008600081548092919061144790613eef565b91905055506009600080820160006101000a81549073ffffffffffffffffffffffffffffffffffffffff021916905560018201600090556002820160009055600382016000905550505050505050505050565b6000806114a683612278565b9050600073ffffffffffffffffffffffffffffffffffffffff168173ffffffffffffffffffffffffffffffffffffffff1603611517576040517f08c379a000000000000000000000000000000000000000000000000000000000815260040161150e90613f64565b60405180910390fd5b80915050919050565b60008073ffffffffffffffffffffffffffffffffffffffff168273ffffffffffffffffffffffffffffffffffffffff1603611590576040517f08c379a000000000000000000000000000000000000000000000000000000000815260040161158790613ff6565b60405180910390fd5b600360008373ffffffffffffffffffffffffffffffffffffffff1673ffffffffffffffffffffffffffffffffffffffff168152602001908152602001600020549050919050565b6115df612b24565b600d60008381526020019081526020016000206040518061010001604052908160008201548152602001600182018054611618906135a3565b80601f0160208091040260200160405190810160405280929190818152602001828054611644906135a3565b80156116915780601f1061166657610100808354040283529160200191611691565b820191906000526020600020905b81548152906001019060200180831161167457829003601f168201915b50505050508152602001600282015481526020016003820154815260200160048201548152602001600582015481526020016006820180546116d2906135a3565b80601f01602080910402602001604051908101604052809291908181526020018280546116fe906135a3565b801561174b5780601f106117205761010080835404028352916020019161174b565b820191906000526020600020905b81548152906001019060200180831161172e57829003601f168201915b50505050508152602001600782018054611764906135a3565b80601f0160208091040260200160405190810160405280929190818152602001828054611790906135a3565b80156117dd5780601f106117b2576101008083540402835291602001916117dd565b820191906000526020600020905b8154815290600101906020018083116117c057829003601f168201915b5050505050815250509050919050565b600660009054906101000a900473ffffffffffffffffffffffffffffffffffffffff1681565b60075481565b606060018054611828906135a3565b80601f0160208091040260200160405190810160405280929190818152602001828054611854906135a3565b80156118a15780601f10611876576101008083540402835291602001916118a1565b820191906000526020600020905b81548152906001019060200180831161188457829003601f168201915b5050505050905090565b600e6020528160005260406000206020528060005260406000206000915091509054906101000a900460ff1681565b6118ec6118e5611cbd565b83836122b5565b5050565b600f6020528160005260406000206020528060005260406000206000915091509054906101000a900473ffffffffffffffffffffffffffffffffffffffff1681565b61194361193d611cbd565b83611d9c565b611982576040517f08c379a000000000000000000000000000000000000000000000000000000000815260040161197990613a31565b60405180910390fd5b61198e84848484612421565b50505050565b606061199f82611c72565b60006119a961247d565b905060008151116119c957604051806020016040528060008152506119f4565b806119d384612494565b6040516020016119e4929190614052565b6040516020818303038152906040525b915050919050565b600660009054906101000a900473ffffffffffffffffffffffffffffffffffffffff1673ffffffffffffffffffffffffffffffffffffffff163373ffffffffffffffffffffffffffffffffffffffff1614611a8c576040517f08c379a0000000000000000000000000000000000000000000000000000000008152600401611a8390613ac3565b60405180910390fd5b60076000815480929190611a9f90613977565b9190505550604051806101000160405280600754815260200187815260200186815260200185815260200185815260200184815260200183815260200182815250600d60006007548152602001908152602001600020600082015181600001556020820151816001019081611b149190614222565b5060408201518160020155606082015181600301556080820151816004015560a0820151816005015560c0820151816006019081611b529190614222565b5060e0820151816007019081611b689190614222565b50905050505050505050565b6000600560008473ffffffffffffffffffffffffffffffffffffffff1673ffffffffffffffffffffffffffffffffffffffff16815260200190815260200160002060008373ffffffffffffffffffffffffffffffffffffffff1673ffffffffffffffffffffffffffffffffffffffff16815260200190815260200160002060009054906101000a900460ff16905092915050565b60007f01ffc9a7000000000000000000000000000000000000000000000000000000007bffffffffffffffffffffffffffffffffffffffffffffffffffffffff1916827bffffffffffffffffffffffffffffffffffffffffffffffffffffffff1916149050919050565b611c7b81612562565b611cba576040517f08c379a0000000000000000000000000000000000000000000000000000000008152600401611cb190613f64565b60405180910390fd5b50565b600033905090565b816004600083815260200190815260200160002060006101000a81548173ffffffffffffffffffffffffffffffffffffffff021916908373ffffffffffffffffffffffffffffffffffffffff160217905550808273ffffffffffffffffffffffffffffffffffffffff16611d388361149a565b73ffffffffffffffffffffffffffffffffffffffff167f8c5be1e5ebec7d5bd14f71427d1e84f3dd0314c0f7b2291e5b200ac8c7c3b92560405160405180910390a45050565b611d988282604051806020016040528060008152506125a3565b5050565b600080611da88361149a565b90508073ffffffffffffffffffffffffffffffffffffffff168473ffffffffffffffffffffffffffffffffffffffff161480611dea5750611de98185611b74565b5b80611e2857508373ffffffffffffffffffffffffffffffffffffffff16611e1084610786565b73ffffffffffffffffffffffffffffffffffffffff16145b91505092915050565b8273ffffffffffffffffffffffffffffffffffffffff16611e518261149a565b73ffffffffffffffffffffffffffffffffffffffff1614611ea7576040517f08c379a0000000000000000000000000000000000000000000000000000000008152600401611e9e90614366565b60405180910390fd5b600073ffffffffffffffffffffffffffffffffffffffff168273ffffffffffffffffffffffffffffffffffffffff1603611f16576040517f08c379a0000000000000000000000000000000000000000000000000000000008152600401611f0d906143f8565b60405180910390fd5b611f2383838360016125fe565b8273ffffffffffffffffffffffffffffffffffffffff16611f438261149a565b73ffffffffffffffffffffffffffffffffffffffff1614611f99576040517f08c379a0000000000000000000000000000000000000000000000000000000008152600401611f9090614366565b60405180910390fd5b6004600082815260200190815260200160002060006101000a81549073ffffffffffffffffffffffffffffffffffffffff02191690556001600360008573ffffffffffffffffffffffffffffffffffffffff1673ffffffffffffffffffffffffffffffffffffffff168152602001908152602001600020600082825403925050819055506001600360008473ffffffffffffffffffffffffffffffffffffffff1673ffffffffffffffffffffffffffffffffffffffff16815260200190815260200160002060008282540192505081905550816002600083815260200190815260200160002060006101000a81548173ffffffffffffffffffffffffffffffffffffffff021916908373ffffffffffffffffffffffffffffffffffffffff160217905550808273ffffffffffffffffffffffffffffffffffffffff168473ffffffffffffffffffffffffffffffffffffffff167fddf252ad1be2c89b69c2b068fc378daa952ba7f163c4a11628f55a4df523b3ef60405160405180910390a46121258383836001612604565b505050565b60006121358261149a565b90506121458160008460016125fe565b61214e8261149a565b90506004600083815260200190815260200160002060006101000a81549073ffffffffffffffffffffffffffffffffffffffff02191690556001600360008373ffffffffffffffffffffffffffffffffffffffff1673ffffffffffffffffffffffffffffffffffffffff168152602001908152602001600020600082825403925050819055506002600083815260200190815260200160002060006101000a81549073ffffffffffffffffffffffffffffffffffffffff021916905581600073ffffffffffffffffffffffffffffffffffffffff168273ffffffffffffffffffffffffffffffffffffffff167fddf252ad1be2c89b69c2b068fc378daa952ba7f163c4a11628f55a4df523b3ef60405160405180910390a4612274816000846001612604565b5050565b60006002600083815260200190815260200160002060009054906101000a900473ffffffffffffffffffffffffffffffffffffffff169050919050565b8173ffffffffffffffffffffffffffffffffffffffff168373ffffffffffffffffffffffffffffffffffffffff1603612323576040517f08c379a000000000000000000000000000000000000000000000000000000000815260040161231a90614464565b60405180910390fd5b80600560008573ffffffffffffffffffffffffffffffffffffffff1673ffffffffffffffffffffffffffffffffffffffff16815260200190815260200160002060008473ffffffffffffffffffffffffffffffffffffffff1673ffffffffffffffffffffffffffffffffffffffff16815260200190815260200160002060006101000a81548160ff0219169083151502179055508173ffffffffffffffffffffffffffffffffffffffff168373ffffffffffffffffffffffffffffffffffffffff167f17307eab39ab6107e8899845ad3d59bd9653f200f220920489ca2b5937696c31836040516124149190612c1d565b60405180910390a3505050565b61242c848484611e31565b6124388484848461260a565b612477576040517f08c379a000000000000000000000000000000000000000000000000000000000815260040161246e906144f6565b60405180910390fd5b50505050565b606060405180602001604052806000815250905090565b6060600060016124a384612791565b01905060008167ffffffffffffffff8111156124c2576124c1613204565b5b6040519080825280601f01601f1916602001820160405280156124f45781602001600182028036833780820191505090505b509050600082602001820190505b600115612557578080600190039150507f3031323334353637383961626364656600000000000000000000000000000000600a86061a8153600a858161254b5761254a613cff565b5b04945060008503612502575b819350505050919050565b60008073ffffffffffffffffffffffffffffffffffffffff1661258483612278565b73ffffffffffffffffffffffffffffffffffffffff1614159050919050565b6125ad83836128e4565b6125ba600084848461260a565b6125f9576040517f08c379a00000000000000000000000000000000000000000000000000000000081526004016125f0906144f6565b60405180910390fd5b505050565b50505050565b50505050565b600061262b8473ffffffffffffffffffffffffffffffffffffffff16612b01565b15612784578373ffffffffffffffffffffffffffffffffffffffff1663150b7a02612654611cbd565b8786866040518563ffffffff1660e01b8152600401612676949392919061456b565b6020604051808303816000875af19250505080156126b257506040513d601f19601f820116820180604052508101906126af91906145cc565b60015b612734573d80600081146126e2576040519150601f19603f3d011682016040523d82523d6000602084013e6126e7565b606091505b50600081510361272c576040517f08c379a0000000000000000000000000000000000000000000000000000000008152600401612723906144f6565b60405180910390fd5b805181602001fd5b63150b7a0260e01b7bffffffffffffffffffffffffffffffffffffffffffffffffffffffff1916817bffffffffffffffffffffffffffffffffffffffffffffffffffffffff191614915050612789565b600190505b949350505050565b600080600090507a184f03e93ff9f4daa797ed6e38ed64bf6a1f01000000000000000083106127ef577a184f03e93ff9f4daa797ed6e38ed64bf6a1f01000000000000000083816127e5576127e4613cff565b5b0492506040810190505b6d04ee2d6d415b85acef8100000000831061282c576d04ee2d6d415b85acef8100000000838161282257612821613cff565b5b0492506020810190505b662386f26fc10000831061285b57662386f26fc10000838161285157612850613cff565b5b0492506010810190505b6305f5e1008310612884576305f5e100838161287a57612879613cff565b5b0492506008810190505b61271083106128a957612710838161289f5761289e613cff565b5b0492506004810190505b606483106128cc57606483816128c2576128c1613cff565b5b0492506002810190505b600a83106128db576001810190505b80915050919050565b600073ffffffffffffffffffffffffffffffffffffffff168273ffffffffffffffffffffffffffffffffffffffff1603612953576040517f08c379a000000000000000000000000000000000000000000000000000000000815260040161294a90614645565b60405180910390fd5b61295c81612562565b1561299c576040517f08c379a0000000000000000000000000000000000000000000000000000000008152600401612993906146b1565b60405180910390fd5b6129aa6000838360016125fe565b6129b381612562565b156129f3576040517f08c379a00000000000000000000000000000000000000000000000000000000081526004016129ea906146b1565b60405180910390fd5b6001600360008473ffffffffffffffffffffffffffffffffffffffff1673ffffffffffffffffffffffffffffffffffffffff16815260200190815260200160002060008282540192505081905550816002600083815260200190815260200160002060006101000a81548173ffffffffffffffffffffffffffffffffffffffff021916908373ffffffffffffffffffffffffffffffffffffffff160217905550808273ffffffffffffffffffffffffffffffffffffffff16600073ffffffffffffffffffffffffffffffffffffffff167fddf252ad1be2c89b69c2b068fc378daa952ba7f163c4a11628f55a4df523b3ef60405160405180910390a4612afd600083836001612604565b5050565b6000808273ffffffffffffffffffffffffffffffffffffffff163b119050919050565b60405180610100016040528060008152602001606081526020016000815260200160008152602001600081526020016000815260200160608152602001606081525090565b6000604051905090565b600080fd5b600080fd5b60007fffffffff0000000000000000000000000000000000000000000000000000000082169050919050565b612bb281612b7d565b8114612bbd57600080fd5b50565b600081359050612bcf81612ba9565b92915050565b600060208284031215612beb57612bea612b73565b5b6000612bf984828501612bc0565b91505092915050565b60008115159050919050565b612c1781612c02565b82525050565b6000602082019050612c326000830184612c0e565b92915050565b600081519050919050565b600082825260208201905092915050565b60005b83811015612c72578082015181840152602081019050612c57565b60008484015250505050565b6000601f19601f8301169050919050565b6000612c9a82612c38565b612ca48185612c43565b9350612cb4818560208601612c54565b612cbd81612c7e565b840191505092915050565b60006020820190508181036000830152612ce28184612c8f565b905092915050565b6000819050919050565b612cfd81612cea565b8114612d0857600080fd5b50565b600081359050612d1a81612cf4565b92915050565b600060208284031215612d3657612d35612b73565b5b6000612d4484828501612d0b565b91505092915050565b600073ffffffffffffffffffffffffffffffffffffffff82169050919050565b6000612d7882612d4d565b9050919050565b612d8881612d6d565b82525050565b6000602082019050612da36000830184612d7f565b92915050565b612db281612d6d565b8114612dbd57600080fd5b50565b600081359050612dcf81612da9565b92915050565b60008060408385031215612dec57612deb612b73565b5b6000612dfa85828601612dc0565b9250506020612e0b85828601612d0b565b9150509250929050565b600081519050919050565b600082825260208201905092915050565b6000819050602082019050919050565b612e4a81612cea565b82525050565b6000612e5c8383612e41565b60208301905092915050565b6000602082019050919050565b6000612e8082612e15565b612e8a8185612e20565b9350612e9583612e31565b8060005b83811015612ec6578151612ead8882612e50565b9750612eb883612e68565b925050600181019050612e99565b5085935050505092915050565b60006020820190508181036000830152612eed8184612e75565b905092915050565b612efe81612cea565b82525050565b6000602082019050612f196000830184612ef5565b92915050565b60008060408385031215612f3657612f35612b73565b5b6000612f4485828601612d0b565b9250506020612f5585828601612d0b565b9150509250929050565b600080600060608486031215612f7857612f77612b73565b5b6000612f8686828701612dc0565b9350506020612f9786828701612dc0565b9250506040612fa886828701612d0b565b9150509250925092565b6000608082019050612fc76000830187612d7f565b612fd46020830186612ef5565b612fe16040830185612ef5565b612fee6060830184612ef5565b95945050505050565b60006020828403121561300d5761300c612b73565b5b600061301b84828501612dc0565b91505092915050565b600082825260208201905092915050565b600061304082612c38565b61304a8185613024565b935061305a818560208601612c54565b61306381612c7e565b840191505092915050565b6000610100830160008301516130876000860182612e41565b506020830151848203602086015261309f8282613035565b91505060408301516130b46040860182612e41565b5060608301516130c76060860182612e41565b5060808301516130da6080860182612e41565b5060a08301516130ed60a0860182612e41565b5060c083015184820360c08601526131058282613035565b91505060e083015184820360e086015261311f8282613035565b9150508091505092915050565b60006020820190508181036000830152613146818461306e565b905092915050565b6000806040838503121561316557613164612b73565b5b600061317385828601612d0b565b925050602061318485828601612dc0565b9150509250929050565b61319781612c02565b81146131a257600080fd5b50565b6000813590506131b48161318e565b92915050565b600080604083850312156131d1576131d0612b73565b5b60006131df85828601612dc0565b92505060206131f0858286016131a5565b9150509250929050565b600080fd5b600080fd5b7f4e487b7100000000000000000000000000000000000000000000000000000000600052604160045260246000fd5b61323c82612c7e565b810181811067ffffffffffffffff8211171561325b5761325a613204565b5b80604052505050565b600061326e612b69565b905061327a8282613233565b919050565b600067ffffffffffffffff82111561329a57613299613204565b5b6132a382612c7e565b9050602081019050919050565b82818337600083830152505050565b60006132d26132cd8461327f565b613264565b9050828152602081018484840111156132ee576132ed6131ff565b5b6132f98482856132b0565b509392505050565b600082601f830112613316576133156131fa565b5b81356133268482602086016132bf565b91505092915050565b6000806000806080858703121561334957613348612b73565b5b600061335787828801612dc0565b945050602061336887828801612dc0565b935050604061337987828801612d0b565b925050606085013567ffffffffffffffff81111561339a57613399612b78565b5b6133a687828801613301565b91505092959194509250565b600067ffffffffffffffff8211156133cd576133cc613204565b5b6133d682612c7e565b9050602081019050919050565b60006133f66133f1846133b2565b613264565b905082815260208101848484011115613412576134116131ff565b5b61341d8482856132b0565b509392505050565b600082601f83011261343a576134396131fa565b5b813561344a8482602086016133e3565b91505092915050565b60008060008060008060c087890312156134705761346f612b73565b5b600087013567ffffffffffffffff81111561348e5761348d612b78565b5b61349a89828a01613425565b96505060206134ab89828a01612d0b565b95505060406134bc89828a01612d0b565b94505060606134cd89828a01612d0b565b935050608087013567ffffffffffffffff8111156134ee576134ed612b78565b5b6134fa89828a01613425565b92505060a087013567ffffffffffffffff81111561351b5761351a612b78565b5b61352789828a01613425565b9150509295509295509295565b6000806040838503121561354b5761354a612b73565b5b600061355985828601612dc0565b925050602061356a85828601612dc0565b9150509250929050565b7f4e487b7100000000000000000000000000000000000000000000000000000000600052602260045260246000fd5b600060028204905060018216806135bb57607f821691505b6020821081036135ce576135cd613574565b5b50919050565b7f4552433732313a20617070726f76616c20746f2063757272656e74206f776e6560008201527f7200000000000000000000000000000000000000000000000000000000000000602082015250565b6000613630602183612c43565b915061363b826135d4565b604082019050919050565b6000602082019050818103600083015261365f81613623565b9050919050565b7f4552433732313a20617070726f76652063616c6c6572206973206e6f7420746f60008201527f6b656e206f776e6572206f7220617070726f76656420666f7220616c6c000000602082015250565b60006136c2603d83612c43565b91506136cd82613666565b604082019050919050565b600060208201905081810360008301526136f1816136b5565b9050919050565b7f496e76616c6964206f63636173696f6e20494400000000000000000000000000600082015250565b600061372e601383612c43565b9150613739826136f8565b602082019050919050565b6000602082019050818103600083015261375d81613721565b9050919050565b7f4f63636173696f6e20646f6573206e6f74206578697374000000000000000000600082015250565b600061379a601783612c43565b91506137a582613764565b602082019050919050565b600060208201905081810360008301526137c98161378d565b9050919050565b7f496e73756666696369656e74204554482073656e740000000000000000000000600082015250565b6000613806601583612c43565b9150613811826137d0565b602082019050919050565b60006020820190508181036000830152613835816137f9565b9050919050565b7f5365617420616c72656164792074616b656e0000000000000000000000000000600082015250565b6000613872601283612c43565b915061387d8261383c565b602082019050919050565b600060208201905081810360008301526138a181613865565b9050919050565b7f53656174206e756d6265722065786365656473206d6178207469636b65747300600082015250565b60006138de601f83612c43565b91506138e9826138a8565b602082019050919050565b6000602082019050818103600083015261390d816138d1565b9050919050565b7f4e487b7100000000000000000000000000000000000000000000000000000000600052601160045260246000fd5b600061394e82612cea565b915061395983612cea565b925082820390508181111561397157613970613914565b5b92915050565b600061398282612cea565b91507fffffffffffffffffffffffffffffffffffffffffffffffffffffffffffffffff82036139b4576139b3613914565b5b600182019050919050565b7f4552433732313a2063616c6c6572206973206e6f7420746f6b656e206f776e6560008201527f72206f7220617070726f76656400000000000000000000000000000000000000602082015250565b6000613a1b602d83612c43565b9150613a26826139bf565b604082019050919050565b60006020820190508181036000830152613a4a81613a0e565b9050919050565b7f4f6e6c7920746865206f776e65722063616e2063616c6c20746869732066756e60008201527f6374696f6e000000000000000000000000000000000000000000000000000000602082015250565b6000613aad602583612c43565b9150613ab882613a51565b604082019050919050565b60006020820190508181036000830152613adc81613aa0565b9050919050565b600081905092915050565b50565b6000613afe600083613ae3565b9150613b0982613aee565b600082019050919050565b6000613b1f82613af1565b9150819050919050565b7f5769746864726177616c206661696c6564000000000000000000000000000000600082015250565b6000613b5f601183612c43565b9150613b6a82613b29565b602082019050919050565b60006020820190508181036000830152613b8e81613b52565b9050919050565b7f596f7520617265206e6f7420746865206275796572206f6620746865206c617360008201527f7420707572636861736500000000000000000000000000000000000000000000602082015250565b6000613bf1602a83612c43565b9150613bfc82613b95565b604082019050919050565b60006020820190508181036000830152613c2081613be4565b9050919050565b7f596f7520646f206e6f74206f776e207468697320736561740000000000000000600082015250565b6000613c5d601883612c43565b9150613c6882613c27565b602082019050919050565b60006020820190508181036000830152613c8c81613c50565b9050919050565b7f43616e6e6f7420726566756e6420616674657220746865206576656e74000000600082015250565b6000613cc9601d83612c43565b9150613cd482613c93565b602082019050919050565b60006020820190508181036000830152613cf881613cbc565b9050919050565b7f4e487b7100000000000000000000000000000000000000000000000000000000600052601260045260246000fd5b6000613d3982612cea565b9150613d4483612cea565b925082613d5457613d53613cff565b5b828204905092915050565b7f526566756e64206e6f7420616c6c6f7765642077697468696e2031352064617960008201527f73206f6620746865206576656e74000000000000000000000000000000000000602082015250565b6000613dbb602e83612c43565b9150613dc682613d5f565b604082019050919050565b60006020820190508181036000830152613dea81613dae565b9050919050565b6000613dfc82612cea565b9150613e0783612cea565b9250828201905080821115613e1f57613e1e613914565b5b92915050565b7f4e487b7100000000000000000000000000000000000000000000000000000000600052603260045260246000fd5b7f4e487b7100000000000000000000000000000000000000000000000000000000600052603160045260246000fd5b7f526566756e64206661696c656400000000000000000000000000000000000000600082015250565b6000613eb9600d83612c43565b9150613ec482613e83565b602082019050919050565b60006020820190508181036000830152613ee881613eac565b9050919050565b6000613efa82612cea565b915060008203613f0d57613f0c613914565b5b600182039050919050565b7f4552433732313a20696e76616c696420746f6b656e2049440000000000000000600082015250565b6000613f4e601883612c43565b9150613f5982613f18565b602082019050919050565b60006020820190508181036000830152613f7d81613f41565b9050919050565b7f4552433732313a2061646472657373207a65726f206973206e6f74206120766160008201527f6c6964206f776e65720000000000000000000000000000000000000000000000602082015250565b6000613fe0602983612c43565b9150613feb82613f84565b604082019050919050565b6000602082019050818103600083015261400f81613fd3565b9050919050565b600081905092915050565b600061402c82612c38565b6140368185614016565b9350614046818560208601612c54565b80840191505092915050565b600061405e8285614021565b915061406a8284614021565b91508190509392505050565b60008190508160005260206000209050919050565b60006020601f8301049050919050565b600082821b905092915050565b6000600883026140d87fffffffffffffffffffffffffffffffffffffffffffffffffffffffffffffffff8261409b565b6140e2868361409b565b95508019841693508086168417925050509392505050565b6000819050919050565b600061411f61411a61411584612cea565b6140fa565b612cea565b9050919050565b6000819050919050565b61413983614104565b61414d61414582614126565b8484546140a8565b825550505050565b600090565b614162614155565b61416d818484614130565b505050565b5b818110156141915761418660008261415a565b600181019050614173565b5050565b601f8211156141d6576141a781614076565b6141b08461408b565b810160208510156141bf578190505b6141d36141cb8561408b565b830182614172565b50505b505050565b600082821c905092915050565b60006141f9600019846008026141db565b1980831691505092915050565b600061421283836141e8565b9150826002028217905092915050565b61422b82612c38565b67ffffffffffffffff81111561424457614243613204565b5b61424e82546135a3565b614259828285614195565b600060209050601f83116001811461428c576000841561427a578287015190505b6142848582614206565b8655506142ec565b601f19841661429a86614076565b60005b828110156142c25784890151825560018201915060208501945060208101905061429d565b868310156142df57848901516142db601f8916826141e8565b8355505b6001600288020188555050505b505050505050565b7f4552433732313a207472616e736665722066726f6d20696e636f72726563742060008201527f6f776e6572000000000000000000000000000000000000000000000000000000602082015250565b6000614350602583612c43565b915061435b826142f4565b604082019050919050565b6000602082019050818103600083015261437f81614343565b9050919050565b7f4552433732313a207472616e7366657220746f20746865207a65726f2061646460008201527f7265737300000000000000000000000000000000000000000000000000000000602082015250565b60006143e2602483612c43565b91506143ed82614386565b604082019050919050565b60006020820190508181036000830152614411816143d5565b9050919050565b7f4552433732313a20617070726f766520746f2063616c6c657200000000000000600082015250565b600061444e601983612c43565b915061445982614418565b602082019050919050565b6000602082019050818103600083015261447d81614441565b9050919050565b7f4552433732313a207472616e7366657220746f206e6f6e20455243373231526560008201527f63656976657220696d706c656d656e7465720000000000000000000000000000602082015250565b60006144e0603283612c43565b91506144eb82614484565b604082019050919050565b6000602082019050818103600083015261450f816144d3565b9050919050565b600081519050919050565b600082825260208201905092915050565b600061453d82614516565b6145478185614521565b9350614557818560208601612c54565b61456081612c7e565b840191505092915050565b60006080820190506145806000830187612d7f565b61458d6020830186612d7f565b61459a6040830185612ef5565b81810360608301526145ac8184614532565b905095945050505050565b6000815190506145c681612ba9565b92915050565b6000602082840312156145e2576145e1612b73565b5b60006145f0848285016145b7565b91505092915050565b7f4552433732313a206d696e7420746f20746865207a65726f2061646472657373600082015250565b600061462f602083612c43565b915061463a826145f9565b602082019050919050565b6000602082019050818103600083015261465e81614622565b9050919050565b7f4552433732313a20746f6b656e20616c7265616479206d696e74656400000000600082015250565b600061469b601c83612c43565b91506146a682614665565b602082019050919050565b600060208201905081810360008301526146ca8161468e565b905091905056fea264697066735822122053d78bd781710f14cad748b5264481ed88fad45b2b7d6b5a14104d36cd346c2f64736f6c63430008110033",
  "linkReferences": {},
  "deployedLinkReferences": {}
}