{
  "_format": "hh-sol-artifact-1",
  "contractName": "TokenMaster",
  "sourceName": "contracts/TokenMaster.sol",
  "abi": [
    {
      "inputs": [
        {
          "internalType": "string",
          "name": "_name",
          "type": "string"
        },
        {
          "internalType": "string",
          "name": "_symbol",
          "type": "string"
        }
      ],
      "stateMutability": "nonpayable",
      "type": "constructor"
    },
    {
      "anonymous": false,
      "inputs": [
        {
          "indexed": true,
          "internalType": "address",
          "name": "owner",
          "type": "address"
        },
        {
          "indexed": true,
          "internalType": "address",
          "name": "approved",
          "type": "address"
        },
        {
          "indexed": true,
          "internalType": "uint256",
          "name": "tokenId",
          "type": "uint256"
        }
      ],
      "name": "Approval",
      "type": "event"
    },
    {
      "anonymous": false,
      "inputs": [
        {
          "indexed": true,
          "internalType": "address",
          "name": "owner",
          "type": "address"
        },
        {
          "indexed": true,
          "internalType": "address",
          "name": "operator",
          "type": "address"
        },
        {
          "indexed": false,
          "internalType": "bool",
          "name": "approved",
          "type": "bool"
        }
      ],
      "name": "ApprovalForAll",
      "type": "event"
    },
    {
      "anonymous": false,
      "inputs": [
        {
          "indexed": true,
          "internalType": "address",
          "name": "from",
          "type": "address"
        },
        {
          "indexed": true,
          "internalType": "address",
          "name": "to",
          "type": "address"
        },
        {
          "indexed": true,
          "internalType": "uint256",
          "name": "tokenId",
          "type": "uint256"
        }
      ],
      "name": "Transfer",
      "type": "event"
    },
    {
      "inputs": [
        {
          "internalType": "address",
          "name": "to",
          "type": "address"
        },
        {
          "internalType": "uint256",
          "name": "tokenId",
          "type": "uint256"
        }
      ],
      "name": "approve",
      "outputs": [],
      "stateMutability": "nonpayable",
      "type": "function"
    },
    {
      "inputs": [
        {
          "internalType": "address",
          "name": "owner",
          "type": "address"
        }
      ],
      "name": "balanceOf",
      "outputs": [
        {
          "internalType": "uint256",
          "name": "",
          "type": "uint256"
        }
      ],
      "stateMutability": "view",
      "type": "function"
    },
    {
      "inputs": [
        {
          "internalType": "uint256",
          "name": "tokenId",
          "type": "uint256"
        }
      ],
      "name": "getApproved",
      "outputs": [
        {
          "internalType": "address",
          "name": "",
          "type": "address"
        }
      ],
      "stateMutability": "view",
      "type": "function"
    },
    {
      "inputs": [
        {
          "internalType": "uint256",
          "name": "_id",
          "type": "uint256"
        }
      ],
      "name": "getOccasion",
      "outputs": [
        {
          "components": [
            {
              "internalType": "uint256",
              "name": "id",
              "type": "uint256"
            },
            {
              "internalType": "string",
              "name": "name",
              "type": "string"
            },
            {
              "internalType": "uint256",
              "name": "cost",
              "type": "uint256"
            },
            {
              "internalType": "uint256",
              "name": "maxTickets",
              "type": "uint256"
            },
            {
              "internalType": "uint256",
              "name": "ticketsSold",
              "type": "uint256"
            },
            {
              "internalType": "uint256",
              "name": "eventTimestamp",
              "type": "uint256"
            },
            {
              "internalType": "string",
              "name": "time",
              "type": "string"
            },
            {
              "internalType": "string",
              "name": "location",
              "type": "string"
            }
          ],
          "internalType": "struct TokenMaster.Occasion",
          "name": "",
          "type": "tuple"
        }
      ],
      "stateMutability": "view",
      "type": "function"
    },
    {
      "inputs": [
        {
          "internalType": "uint256",
          "name": "_id",
          "type": "uint256"
        }
      ],
      "name": "getSeatsTaken",
      "outputs": [
        {
          "internalType": "uint256[]",
          "name": "",
          "type": "uint256[]"
        }
      ],
      "stateMutability": "view",
      "type": "function"
    },
    {
      "inputs": [
        {
          "internalType": "address",
          "name": "_user",
          "type": "address"
        }
      ],
      "name": "getUserPurchases",
      "outputs": [
        {
          "internalType": "uint256[]",
          "name": "",
          "type": "uint256[]"
        }
      ],
      "stateMutability": "view",
      "type": "function"
    },
    {
      "inputs": [
        {
          "internalType": "uint256",
          "name": "",
          "type": "uint256"
        },
        {
          "internalType": "address",
          "name": "",
          "type": "address"
        }
      ],
      "name": "hasBought",
      "outputs": [
        {
          "internalType": "bool",
          "name": "",
          "type": "bool"
        }
      ],
      "stateMutability": "view",
      "type": "function"
    },
    {
      "inputs": [
        {
          "internalType": "address",
          "name": "owner",
          "type": "address"
        },
        {
          "internalType": "address",
          "name": "operator",
          "type": "address"
        }
      ],
      "name": "isApprovedForAll",
      "outputs": [
        {
          "internalType": "bool",
          "name": "",
          "type": "bool"
        }
      ],
      "stateMutability": "view",
      "type": "function"
    },
    {
      "inputs": [
        {
          "internalType": "string",
          "name": "_name",
          "type": "string"
        },
        {
          "internalType": "uint256",
          "name": "_cost",
          "type": "uint256"
        },
        {
          "internalType": "uint256",
          "name": "_maxTickets",
          "type": "uint256"
        },
        {
          "internalType": "uint256",
          "name": "_eventTimestamp",
          "type": "uint256"
        },
        {
          "internalType": "string",
          "name": "_time",
          "type": "string"
        },
        {
          "internalType": "string",
          "name": "_location",
          "type": "string"
        }
      ],
      "name": "list",
      "outputs": [],
      "stateMutability": "nonpayable",
      "type": "function"
    },
    {
      "inputs": [
        {
          "internalType": "uint256",
          "name": "_id",
          "type": "uint256"
        },
        {
          "internalType": "uint256",
          "name": "_seat",
          "type": "uint256"
        }
      ],
      "name": "mint",
      "outputs": [],
      "stateMutability": "payable",
      "type": "function"
    },
    {
      "inputs": [],
      "name": "name",
      "outputs": [
        {
          "internalType": "string",
          "name": "",
          "type": "string"
        }
      ],
      "stateMutability": "view",
      "type": "function"
    },
    {
      "inputs": [
        {
          "internalType": "uint256",
          "name": "",
          "type": "uint256"
        }
      ],
      "name": "occasions",
      "outputs": [
        {
          "internalType": "uint256",
          "name": "id",
          "type": "uint256"
        },
        {
          "internalType": "string",
          "name": "name",
          "type": "string"
        },
        {
          "internalType": "uint256",
          "name": "cost",
          "type": "uint256"
        },
        {
          "internalType": "uint256",
          "name": "maxTickets",
          "type": "uint256"
        },
        {
          "internalType": "uint256",
          "name": "ticketsSold",
          "type": "uint256"
        },
        {
          "internalType": "uint256",
          "name": "eventTimestamp",
          "type": "uint256"
        },
        {
          "internalType": "string",
          "name": "time",
          "type": "string"
        },
        {
          "internalType": "string",
          "name": "location",
          "type": "string"
        }
      ],
      "stateMutability": "view",
      "type": "function"
    },
    {
      "inputs": [],
      "name": "owner",
      "outputs": [
        {
          "internalType": "address",
          "name": "",
          "type": "address"
        }
      ],
      "stateMutability": "view",
      "type": "function"
    },
    {
      "inputs": [
        {
          "internalType": "uint256",
          "name": "tokenId",
          "type": "uint256"
        }
      ],
      "name": "ownerOf",
      "outputs": [
        {
          "internalType": "address",
          "name": "",
          "type": "address"
        }
      ],
      "stateMutability": "view",
      "type": "function"
    },
    {
      "inputs": [
        {
          "internalType": "uint256",
          "name": "_id",
          "type": "uint256"
        },
        {
          "internalType": "uint256",
          "name": "_seat",
          "type": "uint256"
        }
      ],
      "name": "refund",
      "outputs": [],
      "stateMutability": "nonpayable",
      "type": "function"
    },
    {
      "inputs": [
        {
          "internalType": "address",
          "name": "from",
          "type": "address"
        },
        {
          "internalType": "address",
          "name": "to",
          "type": "address"
        },
        {
          "internalType": "uint256",
          "name": "tokenId",
          "type": "uint256"
        }
      ],
      "name": "safeTransferFrom",
      "outputs": [],
      "stateMutability": "nonpayable",
      "type": "function"
    },
    {
      "inputs": [
        {
          "internalType": "address",
          "name": "from",
          "type": "address"
        },
        {
          "internalType": "address",
          "name": "to",
          "type": "address"
        },
        {
          "internalType": "uint256",
          "name": "tokenId",
          "type": "uint256"
        },
        {
          "internalType": "bytes",
          "name": "data",
          "type": "bytes"
        }
      ],
      "name": "safeTransferFrom",
      "outputs": [],
      "stateMutability": "nonpayable",
      "type": "function"
    },
    {
      "inputs": [
        {
          "internalType": "uint256",
          "name": "",
          "type": "uint256"
        },
        {
          "internalType": "uint256",
          "name": "",
          "type": "uint256"
        }
      ],
      "name": "seatTaken",
      "outputs": [
        {
          "internalType": "address",
          "name": "",
          "type": "address"
        }
      ],
      "stateMutability": "view",
      "type": "function"
    },
    {
      "inputs": [
        {
          "internalType": "address",
          "name": "operator",
          "type": "address"
        },
        {
          "internalType": "bool",
          "name": "approved",
          "type": "bool"
        }
      ],
      "name": "setApprovalForAll",
      "outputs": [],
      "stateMutability": "nonpayable",
      "type": "function"
    },
    {
      "inputs": [
        {
          "internalType": "bytes4",
          "name": "interfaceId",
          "type": "bytes4"
        }
      ],
      "name": "supportsInterface",
      "outputs": [
        {
          "internalType": "bool",
          "name": "",
          "type": "bool"
        }
      ],
      "stateMutability": "view",
      "type": "function"
    },
    {
      "inputs": [],
      "name": "symbol",
      "outputs": [
        {
          "internalType": "string",
          "name": "",
          "type": "string"
        }
      ],
      "stateMutability": "view",
      "type": "function"
    },
    {
      "inputs": [
        {
          "internalType": "uint256",
          "name": "tokenId",
          "type": "uint256"
        }
      ],
      "name": "tokenURI",
      "outputs": [
        {
          "internalType": "string",
          "name": "",
          "type": "string"
        }
      ],
      "stateMutability": "view",
      "type": "function"
    },
    {
      "inputs": [],
      "name": "totalOccasions",
      "outputs": [
        {
          "internalType": "uint256",
          "name": "",
          "type": "uint256"
        }
      ],
      "stateMutability": "view",
      "type": "function"
    },
    {
      "inputs": [],
      "name": "totalSupply",
      "outputs": [
        {
          "internalType": "uint256",
          "name": "",
          "type": "uint256"
        }
      ],
      "stateMutability": "view",
      "type": "function"
    },
    {
      "inputs": [
        {
          "internalType": "address",
          "name": "from",
          "type": "address"
        },
        {
          "internalType": "address",
          "name": "to",
          "type": "address"
        },
        {
          "internalType": "uint256",
          "name": "tokenId",
          "type": "uint256"
        }
      ],
      "name": "transferFrom",
      "outputs": [],
      "stateMutability": "nonpayable",
      "type": "function"
    },
    {
      "inputs": [
        {
          "internalType": "address",
          "name": "",
          "type": "address"
        },
        {
          "internalType": "uint256",
          "name": "",
          "type": "uint256"
        }
      ],
      "name": "userPurchases",
      "outputs": [
        {
          "internalType": "uint256",
          "name": "",
          "type": "uint256"
        }
      ],
      "stateMutability": "view",
      "type": "function"
    },
    {
      "inputs": [],
      "name": "withdraw",
      "outputs": [],
      "stateMutability": "nonpayable",
      "type": "function"
    }
  ],
  "bytecode": "0x60806040523480156200001157600080fd5b5060405162004e9138038062004e9183398181016040528101906200003791906200023b565b818181600090816200004a91906200050b565b5080600190816200005c91906200050b565b50505033600660006101000a81548173ffffffffffffffffffffffffffffffffffffffff021916908373ffffffffffffffffffffffffffffffffffffffff1602179055505050620005f2565b6000604051905090565b600080fd5b600080fd5b600080fd5b600080fd5b6000601f19601f8301169050919050565b7f4e487b7100000000000000000000000000000000000000000000000000000000600052604160045260246000fd5b6200011182620000c6565b810181811067ffffffffffffffff82111715620001335762000132620000d7565b5b80604052505050565b600062000148620000a8565b905062000156828262000106565b919050565b600067ffffffffffffffff821115620001795762000178620000d7565b5b6200018482620000c6565b9050602081019050919050565b60005b83811015620001b157808201518184015260208101905062000194565b60008484015250505050565b6000620001d4620001ce846200015b565b6200013c565b905082815260208101848484011115620001f357620001f2620000c1565b5b6200020084828562000191565b509392505050565b600082601f83011262000220576200021f620000bc565b5b815162000232848260208601620001bd565b91505092915050565b60008060408385031215620002555762000254620000b2565b5b600083015167ffffffffffffffff811115620002765762000275620000b7565b5b620002848582860162000208565b925050602083015167ffffffffffffffff811115620002a857620002a7620000b7565b5b620002b68582860162000208565b9150509250929050565b600081519050919050565b7f4e487b7100000000000000000000000000000000000000000000000000000000600052602260045260246000fd5b600060028204905060018216806200031357607f821691505b602082108103620003295762000328620002cb565b5b50919050565b60008190508160005260206000209050919050565b60006020601f8301049050919050565b600082821b905092915050565b600060088302620003937fffffffffffffffffffffffffffffffffffffffffffffffffffffffffffffffff8262000354565b6200039f868362000354565b95508019841693508086168417925050509392505050565b6000819050919050565b6000819050919050565b6000620003ec620003e6620003e084620003b7565b620003c1565b620003b7565b9050919050565b6000819050919050565b6200040883620003cb565b620004206200041782620003f3565b84845462000361565b825550505050565b600090565b6200043762000428565b62000444818484620003fd565b505050565b5b818110156200046c57620004606000826200042d565b6001810190506200044a565b5050565b601f821115620004bb5762000485816200032f565b620004908462000344565b81016020851015620004a0578190505b620004b8620004af8562000344565b83018262000449565b50505b505050565b600082821c905092915050565b6000620004e060001984600802620004c0565b1980831691505092915050565b6000620004fb8383620004cd565b9150826002028217905092915050565b6200051682620002c0565b67ffffffffffffffff811115620005325762000531620000d7565b5b6200053e8254620002fa565b6200054b82828562000470565b600060209050601f8311600181146200058357600084156200056e578287015190505b6200057a8582620004ed565b865550620005ea565b601f19841662000593866200032f565b60005b82811015620005bd5784890151825560018201915060208501945060208101905062000596565b86831015620005dd5784890151620005d9601f891682620004cd565b8355505b6001600288020188555050505b505050505050565b61488f80620006026000396000f3fe60806040526004361061019c5760003560e01c806370a08231116100ec578063af296da11161008a578063c87b56dd11610064578063c87b56dd1461060a578063cf2c033414610647578063e7cf3ac214610684578063e985e9c5146106ad5761019c565b8063af296da114610567578063b88d4fde146105a4578063c6e5d8f6146105cd5761019c565b8063953865c1116100c6578063953865c1146104ab57806395d89b41146104d65780639cb04aef14610501578063a22cb4651461053e5761019c565b806370a082311461040657806374bc8656146104435780638da5cb5b146104805761019c565b80631b2ef1ca1161015957806342842e0e1161013357806342842e0e146103335780635af36e3e1461035c57806361a5672d146103855780636352211e146103c95761019c565b80631b2ef1ca146102d757806323b872dd146102f35780633ccfd60b1461031c5761019c565b806301ffc9a7146101a157806306fdde03146101de578063081812fc14610209578063095ea7b3146102465780630ef7ec741461026f57806318160ddd146102ac575b600080fd5b3480156101ad57600080fd5b506101c860048036038101906101c39190612d69565b6106ea565b6040516101d59190612db1565b60405180910390f35b3480156101ea57600080fd5b506101f36107cc565b6040516102009190612e5c565b60405180910390f35b34801561021557600080fd5b50610230600480360381019061022b9190612eb4565b61085e565b60405161023d9190612f22565b60405180910390f35b34801561025257600080fd5b5061026d60048036038101906102689190612f69565b6108a4565b005b34801561027b57600080fd5b5061029660048036038101906102919190612eb4565b6109bb565b6040516102a39190613067565b60405180910390f35b3480156102b857600080fd5b506102c1610a26565b6040516102ce9190613098565b60405180910390f35b6102f160048036038101906102ec91906130b3565b610a2c565b005b3480156102ff57600080fd5b5061031a600480360381019061031591906130f3565b610dee565b005b34801561032857600080fd5b50610331610e4e565b005b34801561033f57600080fd5b5061035a600480360381019061035591906130f3565b610faf565b005b34801561036857600080fd5b50610383600480360381019061037e91906130b3565b610fcf565b005b34801561039157600080fd5b506103ac60048036038101906103a79190612eb4565b6114d3565b6040516103c0989796959493929190613146565b60405180910390f35b3480156103d557600080fd5b506103f060048036038101906103eb9190612eb4565b6116b3565b6040516103fd9190612f22565b60405180910390f35b34801561041257600080fd5b5061042d600480360381019061042891906131d9565b611739565b60405161043a9190613098565b60405180910390f35b34801561044f57600080fd5b5061046a60048036038101906104659190612eb4565b6117f0565b604051610477919061330e565b60405180910390f35b34801561048c57600080fd5b50610495611a06565b6040516104a29190612f22565b60405180910390f35b3480156104b757600080fd5b506104c0611a2c565b6040516104cd9190613098565b60405180910390f35b3480156104e257600080fd5b506104eb611a32565b6040516104f89190612e5c565b60405180910390f35b34801561050d57600080fd5b5061052860048036038101906105239190613330565b611ac4565b6040516105359190612db1565b60405180910390f35b34801561054a57600080fd5b506105656004803603810190610560919061339c565b611af3565b005b34801561057357600080fd5b5061058e600480360381019061058991906130b3565b611b09565b60405161059b9190612f22565b60405180910390f35b3480156105b057600080fd5b506105cb60048036038101906105c69190613511565b611b4b565b005b3480156105d957600080fd5b506105f460048036038101906105ef91906131d9565b611bad565b6040516106019190613067565b60405180910390f35b34801561061657600080fd5b50610631600480360381019061062c9190612eb4565b611c44565b60405161063e9190612e5c565b60405180910390f35b34801561065357600080fd5b5061066e60048036038101906106699190612f69565b611cac565b60405161067b9190613098565b60405180910390f35b34801561069057600080fd5b506106ab60048036038101906106a69190613635565b611cdd565b005b3480156106b957600080fd5b506106d460048036038101906106cf9190613716565b611e56565b6040516106e19190612db1565b60405180910390f35b60007f80ac58cd000000000000000000000000000000000000000000000000000000007bffffffffffffffffffffffffffffffffffffffffffffffffffffffff1916827bffffffffffffffffffffffffffffffffffffffffffffffffffffffff191614806107b557507f5b5e139f000000000000000000000000000000000000000000000000000000007bffffffffffffffffffffffffffffffffffffffffffffffffffffffff1916827bffffffffffffffffffffffffffffffffffffffffffffffffffffffff1916145b806107c557506107c482611eea565b5b9050919050565b6060600080546107db90613785565b80601f016020809104026020016040519081016040528092919081815260200182805461080790613785565b80156108545780601f1061082957610100808354040283529160200191610854565b820191906000526020600020905b81548152906001019060200180831161083757829003601f168201915b5050505050905090565b600061086982611f54565b6004600083815260200190815260200160002060009054906101000a900473ffffffffffffffffffffffffffffffffffffffff169050919050565b60006108af826116b3565b90508073ffffffffffffffffffffffffffffffffffffffff168373ffffffffffffffffffffffffffffffffffffffff160361091f576040517f08c379a000000000000000000000000000000000000000000000000000000000815260040161091690613828565b60405180910390fd5b8073ffffffffffffffffffffffffffffffffffffffff1661093e611f9f565b73ffffffffffffffffffffffffffffffffffffffff16148061096d575061096c81610967611f9f565b611e56565b5b6109ac576040517f08c379a00000000000000000000000000000000000000000000000000000000081526004016109a3906138ba565b60405180910390fd5b6109b68383611fa7565b505050565b6060600c6000838152602001908152602001600020805480602002602001604051908101604052809291908181526020018280548015610a1a57602002820191906000526020600020905b815481526020019060010190808311610a06575b50505050509050919050565b60085481565b60008203610a6f576040517f08c379a0000000000000000000000000000000000000000000000000000000008152600401610a6690613926565b60405180910390fd5b600754821115610ab4576040517f08c379a0000000000000000000000000000000000000000000000000000000008152600401610aab90613992565b60405180910390fd5b6009600083815260200190815260200160002060020154341015610b0d576040517f08c379a0000000000000000000000000000000000000000000000000000000008152600401610b04906139fe565b60405180910390fd5b600073ffffffffffffffffffffffffffffffffffffffff16600b6000848152602001908152602001600020600083815260200190815260200160002060009054906101000a900473ffffffffffffffffffffffffffffffffffffffff1673ffffffffffffffffffffffffffffffffffffffff1614610bc0576040517f08c379a0000000000000000000000000000000000000000000000000000000008152600401610bb790613a6a565b60405180910390fd5b6009600083815260200190815260200160002060030154600960008481526020019081526020016000206004015410610c2e576040517f08c379a0000000000000000000000000000000000000000000000000000000008152600401610c2590613ad6565b60405180910390fd5b600960008381526020019081526020016000206004016000815480929190610c5590613b25565b91905055506001600a600084815260200190815260200160002060003373ffffffffffffffffffffffffffffffffffffffff1673ffffffffffffffffffffffffffffffffffffffff16815260200190815260200160002060006101000a81548160ff02191690831515021790555033600b6000848152602001908152602001600020600083815260200190815260200160002060006101000a81548173ffffffffffffffffffffffffffffffffffffffff021916908373ffffffffffffffffffffffffffffffffffffffff160217905550600c6000838152602001908152602001600020819080600181540180825580915050600190039060005260206000200160009091909190915055600d60003373ffffffffffffffffffffffffffffffffffffffff1673ffffffffffffffffffffffffffffffffffffffff16815260200190815260200160002082908060018154018082558091505060019003906000526020600020016000909190919091505560086000815480929190610dd990613b25565b9190505550610dea33600854612060565b5050565b610dff610df9611f9f565b8261207e565b610e3e576040517f08c379a0000000000000000000000000000000000000000000000000000000008152600401610e3590613bdf565b60405180910390fd5b610e49838383612113565b505050565b600660009054906101000a900473ffffffffffffffffffffffffffffffffffffffff1673ffffffffffffffffffffffffffffffffffffffff163373ffffffffffffffffffffffffffffffffffffffff1614610ede576040517f08c379a0000000000000000000000000000000000000000000000000000000008152600401610ed590613c71565b60405180910390fd5b6000600660009054906101000a900473ffffffffffffffffffffffffffffffffffffffff1673ffffffffffffffffffffffffffffffffffffffff1647604051610f2690613cc2565b60006040518083038185875af1925050503d8060008114610f63576040519150601f19603f3d011682016040523d82523d6000602084013e610f68565b606091505b5050905080610fac576040517f08c379a0000000000000000000000000000000000000000000000000000000008152600401610fa390613d23565b60405180910390fd5b50565b610fca83838360405180602001604052806000815250611b4b565b505050565b600a600083815260200190815260200160002060003373ffffffffffffffffffffffffffffffffffffffff1673ffffffffffffffffffffffffffffffffffffffff16815260200190815260200160002060009054906101000a900460ff1661106c576040517f08c379a000000000000000000000000000000000000000000000000000000000815260040161106390613d8f565b60405180910390fd5b3373ffffffffffffffffffffffffffffffffffffffff16600b6000848152602001908152602001600020600083815260200190815260200160002060009054906101000a900473ffffffffffffffffffffffffffffffffffffffff1673ffffffffffffffffffffffffffffffffffffffff161461111e576040517f08c379a000000000000000000000000000000000000000000000000000000000815260040161111590613dfb565b60405180910390fd5b60004290506000600960008581526020019081526020016000206005015490506000600960008681526020019081526020016000206002015490508183111561119c576040517f08c379a000000000000000000000000000000000000000000000000000000000815260040161119390613e67565b60405180910390fd5b62278d0083836111ac9190613e87565b11156111d0576009600086815260200190815260200160002060020154905061124c565b6213c68083836111e09190613e87565b111561121057600260096000878152602001908152602001600020600201546112099190613eea565b905061124b565b6040517f08c379a000000000000000000000000000000000000000000000000000000000815260040161124290613f8d565b60405180910390fd5b5b60096000868152602001908152602001600020600401600081548092919061127390613fad565b91905055506000600b6000878152602001908152602001600020600086815260200190815260200160002060006101000a81548173ffffffffffffffffffffffffffffffffffffffff021916908373ffffffffffffffffffffffffffffffffffffffff1602179055506000600a600087815260200190815260200160002060003373ffffffffffffffffffffffffffffffffffffffff1673ffffffffffffffffffffffffffffffffffffffff16815260200190815260200160002060006101000a81548160ff0219169083151502179055506000600c6000878152602001908152602001600020905060005b818054905081101561141d578582828154811061137f5761137e613fd6565b5b90600052602060002001540361140a5781600183805490506113a19190613e87565b815481106113b2576113b1613fd6565b5b90600052602060002001548282815481106113d0576113cf613fd6565b5b9060005260206000200181905550818054806113ef576113ee614005565b5b6001900381819060005260206000200160009055905561141d565b808061141590613b25565b91505061135f565b5060003373ffffffffffffffffffffffffffffffffffffffff168360405161144490613cc2565b60006040518083038185875af1925050503d8060008114611481576040519150601f19603f3d011682016040523d82523d6000602084013e611486565b606091505b50509050806114ca576040517f08c379a00000000000000000000000000000000000000000000000000000000081526004016114c190614080565b60405180910390fd5b50505050505050565b60096020528060005260406000206000915090508060000154908060010180546114fc90613785565b80601f016020809104026020016040519081016040528092919081815260200182805461152890613785565b80156115755780601f1061154a57610100808354040283529160200191611575565b820191906000526020600020905b81548152906001019060200180831161155857829003601f168201915b5050505050908060020154908060030154908060040154908060050154908060060180546115a290613785565b80601f01602080910402602001604051908101604052809291908181526020018280546115ce90613785565b801561161b5780601f106115f05761010080835404028352916020019161161b565b820191906000526020600020905b8154815290600101906020018083116115fe57829003601f168201915b50505050509080600701805461163090613785565b80601f016020809104026020016040519081016040528092919081815260200182805461165c90613785565b80156116a95780601f1061167e576101008083540402835291602001916116a9565b820191906000526020600020905b81548152906001019060200180831161168c57829003601f168201915b5050505050905088565b6000806116bf8361240c565b9050600073ffffffffffffffffffffffffffffffffffffffff168173ffffffffffffffffffffffffffffffffffffffff1603611730576040517f08c379a0000000000000000000000000000000000000000000000000000000008152600401611727906140ec565b60405180910390fd5b80915050919050565b60008073ffffffffffffffffffffffffffffffffffffffff168273ffffffffffffffffffffffffffffffffffffffff16036117a9576040517f08c379a00000000000000000000000000000000000000000000000000000000081526004016117a09061417e565b60405180910390fd5b600360008373ffffffffffffffffffffffffffffffffffffffff1673ffffffffffffffffffffffffffffffffffffffff168152602001908152602001600020549050919050565b6117f8612cb8565b60096000838152602001908152602001600020604051806101000160405290816000820154815260200160018201805461183190613785565b80601f016020809104026020016040519081016040528092919081815260200182805461185d90613785565b80156118aa5780601f1061187f576101008083540402835291602001916118aa565b820191906000526020600020905b81548152906001019060200180831161188d57829003601f168201915b50505050508152602001600282015481526020016003820154815260200160048201548152602001600582015481526020016006820180546118eb90613785565b80601f016020809104026020016040519081016040528092919081815260200182805461191790613785565b80156119645780601f1061193957610100808354040283529160200191611964565b820191906000526020600020905b81548152906001019060200180831161194757829003601f168201915b5050505050815260200160078201805461197d90613785565b80601f01602080910402602001604051908101604052809291908181526020018280546119a990613785565b80156119f65780601f106119cb576101008083540402835291602001916119f6565b820191906000526020600020905b8154815290600101906020018083116119d957829003601f168201915b5050505050815250509050919050565b600660009054906101000a900473ffffffffffffffffffffffffffffffffffffffff1681565b60075481565b606060018054611a4190613785565b80601f0160208091040260200160405190810160405280929190818152602001828054611a6d90613785565b8015611aba5780601f10611a8f57610100808354040283529160200191611aba565b820191906000526020600020905b815481529060010190602001808311611a9d57829003601f168201915b5050505050905090565b600a6020528160005260406000206020528060005260406000206000915091509054906101000a900460ff1681565b611b05611afe611f9f565b8383612449565b5050565b600b6020528160005260406000206020528060005260406000206000915091509054906101000a900473ffffffffffffffffffffffffffffffffffffffff1681565b611b5c611b56611f9f565b8361207e565b611b9b576040517f08c379a0000000000000000000000000000000000000000000000000000000008152600401611b9290613bdf565b60405180910390fd5b611ba7848484846125b5565b50505050565b6060600d60008373ffffffffffffffffffffffffffffffffffffffff1673ffffffffffffffffffffffffffffffffffffffff168152602001908152602001600020805480602002602001604051908101604052809291908181526020018280548015611c3857602002820191906000526020600020905b815481526020019060010190808311611c24575b50505050509050919050565b6060611c4f82611f54565b6000611c59612611565b90506000815111611c795760405180602001604052806000815250611ca4565b80611c8384612628565b604051602001611c949291906141da565b6040516020818303038152906040525b915050919050565b600d6020528160005260406000208181548110611cc857600080fd5b90600052602060002001600091509150505481565b600660009054906101000a900473ffffffffffffffffffffffffffffffffffffffff1673ffffffffffffffffffffffffffffffffffffffff163373ffffffffffffffffffffffffffffffffffffffff1614611d6d576040517f08c379a0000000000000000000000000000000000000000000000000000000008152600401611d6490613c71565b60405180910390fd5b60076000815480929190611d8090613b25565b919050555060405180610100016040528060075481526020018781526020018681526020018581526020016000815260200184815260200183815260200182815250600960006007548152602001908152602001600020600082015181600001556020820151816001019081611df691906143aa565b5060408201518160020155606082015181600301556080820151816004015560a0820151816005015560c0820151816006019081611e3491906143aa565b5060e0820151816007019081611e4a91906143aa565b50905050505050505050565b6000600560008473ffffffffffffffffffffffffffffffffffffffff1673ffffffffffffffffffffffffffffffffffffffff16815260200190815260200160002060008373ffffffffffffffffffffffffffffffffffffffff1673ffffffffffffffffffffffffffffffffffffffff16815260200190815260200160002060009054906101000a900460ff16905092915050565b60007f01ffc9a7000000000000000000000000000000000000000000000000000000007bffffffffffffffffffffffffffffffffffffffffffffffffffffffff1916827bffffffffffffffffffffffffffffffffffffffffffffffffffffffff1916149050919050565b611f5d816126f6565b611f9c576040517f08c379a0000000000000000000000000000000000000000000000000000000008152600401611f93906140ec565b60405180910390fd5b50565b600033905090565b816004600083815260200190815260200160002060006101000a81548173ffffffffffffffffffffffffffffffffffffffff021916908373ffffffffffffffffffffffffffffffffffffffff160217905550808273ffffffffffffffffffffffffffffffffffffffff1661201a836116b3565b73ffffffffffffffffffffffffffffffffffffffff167f8c5be1e5ebec7d5bd14f71427d1e84f3dd0314c0f7b2291e5b200ac8c7c3b92560405160405180910390a45050565b61207a828260405180602001604052806000815250612737565b5050565b60008061208a836116b3565b90508073ffffffffffffffffffffffffffffffffffffffff168473ffffffffffffffffffffffffffffffffffffffff1614806120cc57506120cb8185611e56565b5b8061210a57508373ffffffffffffffffffffffffffffffffffffffff166120f28461085e565b73ffffffffffffffffffffffffffffffffffffffff16145b91505092915050565b8273ffffffffffffffffffffffffffffffffffffffff16612133826116b3565b73ffffffffffffffffffffffffffffffffffffffff1614612189576040517f08c379a0000000000000000000000000000000000000000000000000000000008152600401612180906144ee565b60405180910390fd5b600073ffffffffffffffffffffffffffffffffffffffff168273ffffffffffffffffffffffffffffffffffffffff16036121f8576040517f08c379a00000000000000000000000000000000000000000000000000000000081526004016121ef90614580565b60405180910390fd5b6122058383836001612792565b8273ffffffffffffffffffffffffffffffffffffffff16612225826116b3565b73ffffffffffffffffffffffffffffffffffffffff161461227b576040517f08c379a0000000000000000000000000000000000000000000000000000000008152600401612272906144ee565b60405180910390fd5b6004600082815260200190815260200160002060006101000a81549073ffffffffffffffffffffffffffffffffffffffff02191690556001600360008573ffffffffffffffffffffffffffffffffffffffff1673ffffffffffffffffffffffffffffffffffffffff168152602001908152602001600020600082825403925050819055506001600360008473ffffffffffffffffffffffffffffffffffffffff1673ffffffffffffffffffffffffffffffffffffffff16815260200190815260200160002060008282540192505081905550816002600083815260200190815260200160002060006101000a81548173ffffffffffffffffffffffffffffffffffffffff021916908373ffffffffffffffffffffffffffffffffffffffff160217905550808273ffffffffffffffffffffffffffffffffffffffff168473ffffffffffffffffffffffffffffffffffffffff167fddf252ad1be2c89b69c2b068fc378daa952ba7f163c4a11628f55a4df523b3ef60405160405180910390a46124078383836001612798565b505050565b60006002600083815260200190815260200160002060009054906101000a900473ffffffffffffffffffffffffffffffffffffffff169050919050565b8173ffffffffffffffffffffffffffffffffffffffff168373ffffffffffffffffffffffffffffffffffffffff16036124b7576040517f08c379a00000000000000000000000000000000000000000000000000000000081526004016124ae906145ec565b60405180910390fd5b80600560008573ffffffffffffffffffffffffffffffffffffffff1673ffffffffffffffffffffffffffffffffffffffff16815260200190815260200160002060008473ffffffffffffffffffffffffffffffffffffffff1673ffffffffffffffffffffffffffffffffffffffff16815260200190815260200160002060006101000a81548160ff0219169083151502179055508173ffffffffffffffffffffffffffffffffffffffff168373ffffffffffffffffffffffffffffffffffffffff167f17307eab39ab6107e8899845ad3d59bd9653f200f220920489ca2b5937696c31836040516125a89190612db1565b60405180910390a3505050565b6125c0848484612113565b6125cc8484848461279e565b61260b576040517f08c379a00000000000000000000000000000000000000000000000000000000081526004016126029061467e565b60405180910390fd5b50505050565b606060405180602001604052806000815250905090565b60606000600161263784612925565b01905060008167ffffffffffffffff811115612656576126556133e6565b5b6040519080825280601f01601f1916602001820160405280156126885781602001600182028036833780820191505090505b509050600082602001820190505b6001156126eb578080600190039150507f3031323334353637383961626364656600000000000000000000000000000000600a86061a8153600a85816126df576126de613ebb565b5b04945060008503612696575b819350505050919050565b60008073ffffffffffffffffffffffffffffffffffffffff166127188361240c565b73ffffffffffffffffffffffffffffffffffffffff1614159050919050565b6127418383612a78565b61274e600084848461279e565b61278d576040517f08c379a00000000000000000000000000000000000000000000000000000000081526004016127849061467e565b60405180910390fd5b505050565b50505050565b50505050565b60006127bf8473ffffffffffffffffffffffffffffffffffffffff16612c95565b15612918578373ffffffffffffffffffffffffffffffffffffffff1663150b7a026127e8611f9f565b8786866040518563ffffffff1660e01b815260040161280a94939291906146f3565b6020604051808303816000875af192505050801561284657506040513d601f19601f820116820180604052508101906128439190614754565b60015b6128c8573d8060008114612876576040519150601f19603f3d011682016040523d82523d6000602084013e61287b565b606091505b5060008151036128c0576040517f08c379a00000000000000000000000000000000000000000000000000000000081526004016128b79061467e565b60405180910390fd5b805181602001fd5b63150b7a0260e01b7bffffffffffffffffffffffffffffffffffffffffffffffffffffffff1916817bffffffffffffffffffffffffffffffffffffffffffffffffffffffff19161491505061291d565b600190505b949350505050565b600080600090507a184f03e93ff9f4daa797ed6e38ed64bf6a1f0100000000000000008310612983577a184f03e93ff9f4daa797ed6e38ed64bf6a1f010000000000000000838161297957612978613ebb565b5b0492506040810190505b6d04ee2d6d415b85acef810000000083106129c0576d04ee2d6d415b85acef810000000083816129b6576129b5613ebb565b5b0492506020810190505b662386f26fc1000083106129ef57662386f26fc1000083816129e5576129e4613ebb565b5b0492506010810190505b6305f5e1008310612a18576305f5e1008381612a0e57612a0d613ebb565b5b0492506008810190505b6127108310612a3d576127108381612a3357612a32613ebb565b5b0492506004810190505b60648310612a605760648381612a5657612a55613ebb565b5b0492506002810190505b600a8310612a6f576001810190505b80915050919050565b600073ffffffffffffffffffffffffffffffffffffffff168273ffffffffffffffffffffffffffffffffffffffff1603612ae7576040517f08c379a0000000000000000000000000000000000000000000000000000000008152600401612ade906147cd565b60405180910390fd5b612af0816126f6565b15612b30576040517f08c379a0000000000000000000000000000000000000000000000000000000008152600401612b2790614839565b60405180910390fd5b612b3e600083836001612792565b612b47816126f6565b15612b87576040517f08c379a0000000000000000000000000000000000000000000000000000000008152600401612b7e90614839565b60405180910390fd5b6001600360008473ffffffffffffffffffffffffffffffffffffffff1673ffffffffffffffffffffffffffffffffffffffff16815260200190815260200160002060008282540192505081905550816002600083815260200190815260200160002060006101000a81548173ffffffffffffffffffffffffffffffffffffffff021916908373ffffffffffffffffffffffffffffffffffffffff160217905550808273ffffffffffffffffffffffffffffffffffffffff16600073ffffffffffffffffffffffffffffffffffffffff167fddf252ad1be2c89b69c2b068fc378daa952ba7f163c4a11628f55a4df523b3ef60405160405180910390a4612c91600083836001612798565b5050565b6000808273ffffffffffffffffffffffffffffffffffffffff163b119050919050565b60405180610100016040528060008152602001606081526020016000815260200160008152602001600081526020016000815260200160608152602001606081525090565b6000604051905090565b600080fd5b600080fd5b60007fffffffff0000000000000000000000000000000000000000000000000000000082169050919050565b612d4681612d11565b8114612d5157600080fd5b50565b600081359050612d6381612d3d565b92915050565b600060208284031215612d7f57612d7e612d07565b5b6000612d8d84828501612d54565b91505092915050565b60008115159050919050565b612dab81612d96565b82525050565b6000602082019050612dc66000830184612da2565b92915050565b600081519050919050565b600082825260208201905092915050565b60005b83811015612e06578082015181840152602081019050612deb565b60008484015250505050565b6000601f19601f8301169050919050565b6000612e2e82612dcc565b612e388185612dd7565b9350612e48818560208601612de8565b612e5181612e12565b840191505092915050565b60006020820190508181036000830152612e768184612e23565b905092915050565b6000819050919050565b612e9181612e7e565b8114612e9c57600080fd5b50565b600081359050612eae81612e88565b92915050565b600060208284031215612eca57612ec9612d07565b5b6000612ed884828501612e9f565b91505092915050565b600073ffffffffffffffffffffffffffffffffffffffff82169050919050565b6000612f0c82612ee1565b9050919050565b612f1c81612f01565b82525050565b6000602082019050612f376000830184612f13565b92915050565b612f4681612f01565b8114612f5157600080fd5b50565b600081359050612f6381612f3d565b92915050565b60008060408385031215612f8057612f7f612d07565b5b6000612f8e85828601612f54565b9250506020612f9f85828601612e9f565b9150509250929050565b600081519050919050565b600082825260208201905092915050565b6000819050602082019050919050565b612fde81612e7e565b82525050565b6000612ff08383612fd5565b60208301905092915050565b6000602082019050919050565b600061301482612fa9565b61301e8185612fb4565b935061302983612fc5565b8060005b8381101561305a5781516130418882612fe4565b975061304c83612ffc565b92505060018101905061302d565b5085935050505092915050565b600060208201905081810360008301526130818184613009565b905092915050565b61309281612e7e565b82525050565b60006020820190506130ad6000830184613089565b92915050565b600080604083850312156130ca576130c9612d07565b5b60006130d885828601612e9f565b92505060206130e985828601612e9f565b9150509250929050565b60008060006060848603121561310c5761310b612d07565b5b600061311a86828701612f54565b935050602061312b86828701612f54565b925050604061313c86828701612e9f565b9150509250925092565b60006101008201905061315c600083018b613089565b818103602083015261316e818a612e23565b905061317d6040830189613089565b61318a6060830188613089565b6131976080830187613089565b6131a460a0830186613089565b81810360c08301526131b68185612e23565b905081810360e08301526131ca8184612e23565b90509998505050505050505050565b6000602082840312156131ef576131ee612d07565b5b60006131fd84828501612f54565b91505092915050565b600082825260208201905092915050565b600061322282612dcc565b61322c8185613206565b935061323c818560208601612de8565b61324581612e12565b840191505092915050565b6000610100830160008301516132696000860182612fd5565b50602083015184820360208601526132818282613217565b91505060408301516132966040860182612fd5565b5060608301516132a96060860182612fd5565b5060808301516132bc6080860182612fd5565b5060a08301516132cf60a0860182612fd5565b5060c083015184820360c08601526132e78282613217565b91505060e083015184820360e08601526133018282613217565b9150508091505092915050565b600060208201905081810360008301526133288184613250565b905092915050565b6000806040838503121561334757613346612d07565b5b600061335585828601612e9f565b925050602061336685828601612f54565b9150509250929050565b61337981612d96565b811461338457600080fd5b50565b60008135905061339681613370565b92915050565b600080604083850312156133b3576133b2612d07565b5b60006133c185828601612f54565b92505060206133d285828601613387565b9150509250929050565b600080fd5b600080fd5b7f4e487b7100000000000000000000000000000000000000000000000000000000600052604160045260246000fd5b61341e82612e12565b810181811067ffffffffffffffff8211171561343d5761343c6133e6565b5b80604052505050565b6000613450612cfd565b905061345c8282613415565b919050565b600067ffffffffffffffff82111561347c5761347b6133e6565b5b61348582612e12565b9050602081019050919050565b82818337600083830152505050565b60006134b46134af84613461565b613446565b9050828152602081018484840111156134d0576134cf6133e1565b5b6134db848285613492565b509392505050565b600082601f8301126134f8576134f76133dc565b5b81356135088482602086016134a1565b91505092915050565b6000806000806080858703121561352b5761352a612d07565b5b600061353987828801612f54565b945050602061354a87828801612f54565b935050604061355b87828801612e9f565b925050606085013567ffffffffffffffff81111561357c5761357b612d0c565b5b613588878288016134e3565b91505092959194509250565b600067ffffffffffffffff8211156135af576135ae6133e6565b5b6135b882612e12565b9050602081019050919050565b60006135d86135d384613594565b613446565b9050828152602081018484840111156135f4576135f36133e1565b5b6135ff848285613492565b509392505050565b600082601f83011261361c5761361b6133dc565b5b813561362c8482602086016135c5565b91505092915050565b60008060008060008060c0878903121561365257613651612d07565b5b600087013567ffffffffffffffff8111156136705761366f612d0c565b5b61367c89828a01613607565b965050602061368d89828a01612e9f565b955050604061369e89828a01612e9f565b94505060606136af89828a01612e9f565b935050608087013567ffffffffffffffff8111156136d0576136cf612d0c565b5b6136dc89828a01613607565b92505060a087013567ffffffffffffffff8111156136fd576136fc612d0c565b5b61370989828a01613607565b9150509295509295509295565b6000806040838503121561372d5761372c612d07565b5b600061373b85828601612f54565b925050602061374c85828601612f54565b9150509250929050565b7f4e487b7100000000000000000000000000000000000000000000000000000000600052602260045260246000fd5b6000600282049050600182168061379d57607f821691505b6020821081036137b0576137af613756565b5b50919050565b7f4552433732313a20617070726f76616c20746f2063757272656e74206f776e6560008201527f7200000000000000000000000000000000000000000000000000000000000000602082015250565b6000613812602183612dd7565b915061381d826137b6565b604082019050919050565b6000602082019050818103600083015261384181613805565b9050919050565b7f4552433732313a20617070726f76652063616c6c6572206973206e6f7420746f60008201527f6b656e206f776e6572206f7220617070726f76656420666f7220616c6c000000602082015250565b60006138a4603d83612dd7565b91506138af82613848565b604082019050919050565b600060208201905081810360008301526138d381613897565b9050919050565b7f496e76616c6964206f63636173696f6e20494400000000000000000000000000600082015250565b6000613910601383612dd7565b915061391b826138da565b602082019050919050565b6000602082019050818103600083015261393f81613903565b9050919050565b7f4f63636173696f6e20646f6573206e6f74206578697374000000000000000000600082015250565b600061397c601783612dd7565b915061398782613946565b602082019050919050565b600060208201905081810360008301526139ab8161396f565b9050919050565b7f496e73756666696369656e74204554482073656e740000000000000000000000600082015250565b60006139e8601583612dd7565b91506139f3826139b2565b602082019050919050565b60006020820190508181036000830152613a17816139db565b9050919050565b7f5365617420616c72656164792074616b656e0000000000000000000000000000600082015250565b6000613a54601283612dd7565b9150613a5f82613a1e565b602082019050919050565b60006020820190508181036000830152613a8381613a47565b9050919050565b7f416c6c207469636b65747320736f6c6400000000000000000000000000000000600082015250565b6000613ac0601083612dd7565b9150613acb82613a8a565b602082019050919050565b60006020820190508181036000830152613aef81613ab3565b9050919050565b7f4e487b7100000000000000000000000000000000000000000000000000000000600052601160045260246000fd5b6000613b3082612e7e565b91507fffffffffffffffffffffffffffffffffffffffffffffffffffffffffffffffff8203613b6257613b61613af6565b5b600182019050919050565b7f4552433732313a2063616c6c6572206973206e6f7420746f6b656e206f776e6560008201527f72206f7220617070726f76656400000000000000000000000000000000000000602082015250565b6000613bc9602d83612dd7565b9150613bd482613b6d565b604082019050919050565b60006020820190508181036000830152613bf881613bbc565b9050919050565b7f4f6e6c7920746865206f776e65722063616e2063616c6c20746869732066756e60008201527f6374696f6e000000000000000000000000000000000000000000000000000000602082015250565b6000613c5b602583612dd7565b9150613c6682613bff565b604082019050919050565b60006020820190508181036000830152613c8a81613c4e565b9050919050565b600081905092915050565b50565b6000613cac600083613c91565b9150613cb782613c9c565b600082019050919050565b6000613ccd82613c9f565b9150819050919050565b7f5769746864726177616c206661696c6564000000000000000000000000000000600082015250565b6000613d0d601183612dd7565b9150613d1882613cd7565b602082019050919050565b60006020820190508181036000830152613d3c81613d00565b9050919050565b7f596f752068617665206e6f7420626f756768742074686973207469636b657400600082015250565b6000613d79601f83612dd7565b9150613d8482613d43565b602082019050919050565b60006020820190508181036000830152613da881613d6c565b9050919050565b7f596f7520646f206e6f74206f776e207468697320736561740000000000000000600082015250565b6000613de5601883612dd7565b9150613df082613daf565b602082019050919050565b60006020820190508181036000830152613e1481613dd8565b9050919050565b7f43616e6e6f7420726566756e6420616674657220746865206576656e74000000600082015250565b6000613e51601d83612dd7565b9150613e5c82613e1b565b602082019050919050565b60006020820190508181036000830152613e8081613e44565b9050919050565b6000613e9282612e7e565b9150613e9d83612e7e565b9250828203905081811115613eb557613eb4613af6565b5b92915050565b7f4e487b7100000000000000000000000000000000000000000000000000000000600052601260045260246000fd5b6000613ef582612e7e565b9150613f0083612e7e565b925082613f1057613f0f613ebb565b5b828204905092915050565b7f526566756e64206e6f7420616c6c6f7765642077697468696e2031352064617960008201527f73206f6620746865206576656e74000000000000000000000000000000000000602082015250565b6000613f77602e83612dd7565b9150613f8282613f1b565b604082019050919050565b60006020820190508181036000830152613fa681613f6a565b9050919050565b6000613fb882612e7e565b915060008203613fcb57613fca613af6565b5b600182039050919050565b7f4e487b7100000000000000000000000000000000000000000000000000000000600052603260045260246000fd5b7f4e487b7100000000000000000000000000000000000000000000000000000000600052603160045260246000fd5b7f526566756e64206661696c656400000000000000000000000000000000000000600082015250565b600061406a600d83612dd7565b915061407582614034565b602082019050919050565b600060208201905081810360008301526140998161405d565b9050919050565b7f4552433732313a20696e76616c696420746f6b656e2049440000000000000000600082015250565b60006140d6601883612dd7565b91506140e1826140a0565b602082019050919050565b60006020820190508181036000830152614105816140c9565b9050919050565b7f4552433732313a2061646472657373207a65726f206973206e6f74206120766160008201527f6c6964206f776e65720000000000000000000000000000000000000000000000602082015250565b6000614168602983612dd7565b91506141738261410c565b604082019050919050565b600060208201905081810360008301526141978161415b565b9050919050565b600081905092915050565b60006141b482612dcc565b6141be818561419e565b93506141ce818560208601612de8565b80840191505092915050565b60006141e682856141a9565b91506141f282846141a9565b91508190509392505050565b60008190508160005260206000209050919050565b60006020601f8301049050919050565b600082821b905092915050565b6000600883026142607fffffffffffffffffffffffffffffffffffffffffffffffffffffffffffffffff82614223565b61426a8683614223565b95508019841693508086168417925050509392505050565b6000819050919050565b60006142a76142a261429d84612e7e565b614282565b612e7e565b9050919050565b6000819050919050565b6142c18361428c565b6142d56142cd826142ae565b848454614230565b825550505050565b600090565b6142ea6142dd565b6142f58184846142b8565b505050565b5b818110156143195761430e6000826142e2565b6001810190506142fb565b5050565b601f82111561435e5761432f816141fe565b61433884614213565b81016020851015614347578190505b61435b61435385614213565b8301826142fa565b50505b505050565b600082821c905092915050565b600061438160001984600802614363565b1980831691505092915050565b600061439a8383614370565b9150826002028217905092915050565b6143b382612dcc565b67ffffffffffffffff8111156143cc576143cb6133e6565b5b6143d68254613785565b6143e182828561431d565b600060209050601f8311600181146144145760008415614402578287015190505b61440c858261438e565b865550614474565b601f198416614422866141fe565b60005b8281101561444a57848901518255600182019150602085019450602081019050614425565b868310156144675784890151614463601f891682614370565b8355505b6001600288020188555050505b505050505050565b7f4552433732313a207472616e736665722066726f6d20696e636f72726563742060008201527f6f776e6572000000000000000000000000000000000000000000000000000000602082015250565b60006144d8602583612dd7565b91506144e38261447c565b604082019050919050565b60006020820190508181036000830152614507816144cb565b9050919050565b7f4552433732313a207472616e7366657220746f20746865207a65726f2061646460008201527f7265737300000000000000000000000000000000000000000000000000000000602082015250565b600061456a602483612dd7565b91506145758261450e565b604082019050919050565b600060208201905081810360008301526145998161455d565b9050919050565b7f4552433732313a20617070726f766520746f2063616c6c657200000000000000600082015250565b60006145d6601983612dd7565b91506145e1826145a0565b602082019050919050565b60006020820190508181036000830152614605816145c9565b9050919050565b7f4552433732313a207472616e7366657220746f206e6f6e20455243373231526560008201527f63656976657220696d706c656d656e7465720000000000000000000000000000602082015250565b6000614668603283612dd7565b91506146738261460c565b604082019050919050565b600060208201905081810360008301526146978161465b565b9050919050565b600081519050919050565b600082825260208201905092915050565b60006146c58261469e565b6146cf81856146a9565b93506146df818560208601612de8565b6146e881612e12565b840191505092915050565b60006080820190506147086000830187612f13565b6147156020830186612f13565b6147226040830185613089565b818103606083015261473481846146ba565b905095945050505050565b60008151905061474e81612d3d565b92915050565b60006020828403121561476a57614769612d07565b5b60006147788482850161473f565b91505092915050565b7f4552433732313a206d696e7420746f20746865207a65726f2061646472657373600082015250565b60006147b7602083612dd7565b91506147c282614781565b602082019050919050565b600060208201905081810360008301526147e6816147aa565b9050919050565b7f4552433732313a20746f6b656e20616c7265616479206d696e74656400000000600082015250565b6000614823601c83612dd7565b915061482e826147ed565b602082019050919050565b6000602082019050818103600083015261485281614816565b905091905056fea264697066735822122094bc47204aed8eb2d5c1b130b44371820e716acde781419fc300496cb0bccf4764736f6c63430008110033",
  "linkReferences": {},
  "deployedLinkReferences": {}
}